:020000040800F2
:1000000090340020450100084D0100084F01000810
:1000100051010008530100085501000800000000CC
:100020000000000000000000000000005701000870
:1000300059010008000000005B010008552B000872
:100040005F0100085F0100085F0100085F01000810
:100050005F0100085F0100085F0100085F01000800
:100060005F0100085F0100085F0100085F010008F0
:10007000350500089D0500085F0100085F010008C4
:100080005F0100085F0100085F0100085F010008D0
:10009000413200085F0100085F0100085F010008AD
:1000A0005F0100085F0100085F0100085F010008B0
:1000B000C52B00085F0100085F0100085F01000810
:1000C0005F0100085F0100085F0100085F01000890
:1000D0005F010008452D00085F0100085F0100086E
:1000E0005F0100085F010008B32F00085F010008EE
:1000F0005F0100085F0100085F0100085F01000860
:100100005F0100085F0100085F0100085F0100084F
:100110005F0100085F0100085F0100085F0100083F
:100120005F0100085F0100085F0100085F0100082F
:10013000DFF80CD000F02EF800480047B14200086C
:10014000903400200648804706480047FEE7FEE757
:10015000FEE7FEE7FEE7FEE7FEE7FEE7FEE7FEE777
:10016000652B00083101000830B50B460146002020
:100170002022012409E021FA02F59D4205D303FA69
:1001800002F5491B04FA02F52844151EA2F10102EA
:10019000F1DC30BD064C074D06E0E06840F001039D
:1001A00094E8070098471034AC42F6D3FFF7C4FF39
:1001B000B04A0008D04A000870B58C1810F8015BEE
:1001C00015F0070301D110F8013B2A1106D110F8F0
:1001D000012B03E010F8016B01F8016B5B1EF9D1F4
:1001E0002B0705D40023521E0DD401F8013BFAE77A
:1001F00010F8013BCB1A921C03E013F8015B01F8E5
:10020000015B521EF9D5A142D8D3002070BD014632
:10021000CAB20B1243EA02207047000008B5002062
:10022000009022E19748008800F00F00964908707E
:100230000846007800287CD19448006894490880DA
:100240000846008800F030009249088090480088F5
:1002500000F440508E4908808C4909684BF6BF7203
:1002600001EA020080F4005080F0200040F40041D8
:1002700041F08001854A11608248008800F010003A
:1002800090BB1046006848F60F71084011460860A0
:1002900001F032F87D4909684BF6BF7201EA0200AD
:1002A0007B49098801F4805109B180F48050784974
:1002B000098801F4005109B180F40050754909889A
:1002C00001F0100109B180F010007249098801F0B5
:1002D000200109B180F0200081B241F4004141F0D9
:1002E00080016A4A116008BDFFE76848006880B273
:1002F0000090BDF8000000F40060B0B363480068EF
:10030000C0F30E0048F68F7108406049086002F0A3
:10031000CFF85E4909684BF6BF7201EA02005C49FA
:10032000098801F4805109B180F480505849098846
:1003300000E056E001F4005109B180F40050554945
:10034000098801F0100109B180F0100051490988B5
:1003500001F0200109B180F0200081B241F4004198
:1003600041F08001494A1160BDE7FFE7BDF8000098
:1003700000F40040002878D044480068C0F30E0024
:1003800048F68F7108404149086001F051F93F4932
:1003900009684BF6BF7201EA02003D49098801F481
:1003A000805109B180F480503949098801F4005125
:1003B00009B180F400503749098801F0100109B1F2
:1003C00080F010003349098801F0200109B180F064
:1003D000200081B241F4004141F080012B4A1160BC
:1003E00081E7294800782C4901EB8000D0F8000C07
:1003F00080B20090BDF8000000F40040C0B1224877
:10040000007801EB8000D0F8000CC0F30E0048F635
:100410008F7108401C4909781F4A02EB8101C1F81D
:10042000000C19490978491E1C4A52F821008047DE
:10043000BDF8000000F08000B8B1134800781649FC
:1004400001EB8000D0F8000C48F60F7108400E490F
:100450000978114A02EB8101C1F8000C0A490978B8
:10046000491E0F4A52F8210080470848443000686E
:1004700080B20449088000F4004000287FF4D2AE26
:1004800000BF30E7DC000020C4010020005C004019
:10049000D8010020DA0100200050004004010020B3
:1004A000E80000200B4A02EB8001D1F8001C01F4A7
:1004B000804171B102EB8001D1F8001C48F68F72C7
:1004C00011404CF280021143024B03EB8002C2F850
:1004D000001C7047005000400B4A02EB8001D1F82D
:1004E000001C01F0400171B102EB8001D1F8001C49
:1004F00048F68F72114048F2C0021143024B03EBE1
:100500008002C2F8001C704700500040084A02EB0D
:100510008001D1F8001C48F68F62114048F2800239
:100520001143034B03EB8002C2F8001C704700002C
:100530000050004010B500220821144800F05CF97A
:1005400000220221114800F057F94FF4007000F02A
:1005500059F84FF4006000F055F8202000F036F90B
:10056000012809D110200A490860202000F058F81D
:1005700000200849086008E0102005490860802034
:1005800000F04EF801200449086010BD1C00024034
:1005900010080140700000207800002010B50022F3
:1005A0000821144800F028F900220221114800F027
:1005B00023F9202000F026F8802000F023F84FF4E3
:1005C000007000F0EDF8012809D110200A490860F8
:1005D000400100F025F800200849086008E01020DC
:1005E00005490860C00100F01BF8012004490860BB
:1005F00010BD0000300002401008014074000020CF
:100600007C00002000F0805111B10349086001E036
:1006100002494860704700000404024000000240A4
:1006200000F0805111B10349086001E002494860BF
:1006300070470000040402400000024021B102683B
:1006400042F00102026004E002684FF6FE731A40B5
:100650000260704701684FF6FE7211400160002190
:10066000016041608160C1604B49884208D14A49BC
:100670000839496841F00F01474A083A51608AE059
:1006800045491431884208D143490839496841F045
:10069000F001414A083A51607DE03F4928318842E3
:1006A00008D13D490839496841F470613A4A083A2D
:1006B000516070E038493C31884208D136490839E8
:1006C000496841F47041344A083A516063E0324964
:1006D0005031884208D130490839496841F47021C5
:1006E0002D4A083A516056E02B496431884208D1BE
:1006F00029490839496841F47001274A083A51608C
:1007000049E025497831884208D1234908394968A8
:1007100041F07061204A083A51603CE01F4988422C
:1007200006D1011F096841F00F01021F116032E07C
:100730001A491431884208D11849091F096841F043
:10074000F001164A121F116025E014492831884231
:1007500008D11249091F096841F470610F4A121F3C
:10076000116018E00D493C31884208D10B49091F3E
:10077000096841F47041094A121F11600BE00749F2
:100780005031884207D10549091F096841F4702199
:10079000024A121F1160704708000240080402401C
:1007A00001460020002201F0805313B1054B1A6866
:1007B00001E0054B1A6802EA01030BB1012000E0D9
:1007C0000020704700040240000002400146002063
:1007D000002201F0805313B1054B1A6801E0054B6C
:1007E0001A6802EA01030BB1012000E00020704703
:1007F00000040240000002401AB103680B4303608A
:1008000002E003688B430360704710B50022026862
:1008100047F6F0739A430C6A8B6823430C692343B1
:100820004C6923438C692343CC6923434C6A23439B
:100830008C6A23431A430260CB6843600B68836071
:100840004B68C36010BD4160704700002DE9F04760
:100850002848006800F110052E8826480068077AAD
:10086000D6B9042F18D12448007801280FD10021CF
:100870002248006880B2801C214A42F810103020C3
:100880002049088000BF00201B49087003E00727AB
:1008900010201C49088027E0AC88A64201D804201B
:1008A00000E002200746B44200D93446A0B2A9684D
:1008B00088478046002000F0F5FC8146A2B24946F8
:1008C000404602F003FDA1B2002001F0DFFC2888C1
:1008D000001B2880688820446880302009490880EF
:1008E00000020949088000BF024909680F72BDE88B
:1008F000F0870000C8010020C2010020505C0040C9
:1009000000600040DA010020D80100202DE9F0410C
:100910002848006800F110042688A068C0B1BEB164
:10092000A588B54200D93546A8B2A16888470746D0
:100930002088401B2080608828446080002000F0D0
:100940008FFC8046AAB24146384600F099FE00BFAF
:10095000208850B14FF440501749088000210846C4
:1009600001F094FC3020154908802088A188884235
:1009700004DB03200F490968087218E0208800286A
:1009800004DD05200B490968087210E0208870B961
:10099000062008490968087200210948006880B2E9
:1009A000801C084A42F81010302004490880BDE835
:1009B000F0810000C8010020D8010020DA010020E9
:1009C000505C0040006000402DE9F84F9B480068F3
:1009D00045780027BA46062D1BD198480068007854
:1009E00000F07F00002813D1944909688878012815
:1009F00003D193490968CF690AE0022803D19049DD
:100A000009680F6A04E0032802D18D4909684F6A1A
:100A100094E0002D64D189480068408800285FD1A7
:100A200086480068C08802285AD184480068007946
:100A3000002855D181480068007800F07F0028B96F
:100A40007E480068808808B97E4F77E07B48006860
:100A5000007800F07F00012810D1784909684879B2
:100A6000774909688A6900219047002866D1734850
:100A70000068807A002861D0724F5FE06F4800689C
:100A8000007800F07F00022858D16C480068407957
:100A900000F00F0669480068407900F07009674867
:100AA0000068407900F0800038B1674901EB8600AA
:100AB000D0F8000C00F0300806E0634901EB860036
:100AC000D0F8000C00F4405860480078B04235D9A6
:100AD000B9F1000F32D1B8F1000F2FD0594F2DE0EE
:100AE000082D07D155480068007800F07F0028BB2A
:100AF000574F23E00A2D21D150480068007800F0BC
:100B00007F0001281AD14D480068807AB0B14B4867
:100B10000068408890B949480068007970B9474832
:100B20000068C088012809D14449096848794449C6
:100B300009688A690021904700B9464F57B13F487C
:100B40000068A0F812A03D48006887610020B847FF
:100B500000240FE0394A12685078394A1268116946
:100B600088470446032C05D10920344909680872D6
:100B7000BDE8F88F31480068008A4FF6FF7188425F
:100B800004D109202D4909680872F1E7022C03D02D
:100B90002A480068008A20B9082028490968087294
:100BA000E6E726480068007800F08000E0B32348BC
:100BB0000068C088009021480068008A0099884237
:100BC00004D91E4900980968088223E01B48006880
:100BD000008A1A490968C98888421BDA17480068E0
:100BE000008A1749096891F82C10884203DA00201E
:100BF000194908700EE011480068008A1049096818
:100C000091F82C1090FBF1F201FB120010B90120B9
:100C1000114908700A48006890F82C1007480068CD
:100C20008182FFF713FE07E0FFE70320034909680D
:100C3000087200030949088000BF99E7C801002035
:100C4000CC01002051270008005000402C0100205A
:100C5000D526000825270008C2010020D801002061
:100C600010B500240F480078012819D140210E4802
:100C700002F014FB84B2002C0FDD2246C0210A488A
:100C800002F024FB2146012001F000FB012001F0CD
:100C90002BFB00200549086002E000200149087094
:100CA00010BD0000D4000020D4230020D800002074
:100CB00070B500241949032002F0D8FA85B20A2D34
:100CC00027D116480078482823D11448407849286D
:100CD0001FD11248807854281BD100BF06E00F486E
:100CE000005D0F4921F81400601CC4B20A2CF6DB29
:100CF00000F06AFB00BF0B48006800F4E0600A499E
:100D00000843001D07490860BFF34F8F00BF00BFB5
:100D1000FEE7032001F090FA70BD000014240020CB
:100D2000361900200CED00E00000FA0501490860CA
:100D30007047000014040140014600200022044BCB
:100D40001B6803EA01020AB1012000E0002070479D
:100D500000040140002123498279002A3AD00A4642
:100D6000126803689A430B461A600A1D12680368EA
:100D70009A430B1D1A60027911440A6803681A43EA
:100D80000A60184A0832126803689A43154B083300
:100D90001A601A1D126803689A43124B0C331A60CA
:100DA0004279102A0ED11A1F126803681A430D4B9C
:100DB00008331A601A1D126803681A43094B0C3372
:100DC0001A600DE00749427911440A6803681A4322
:100DD0000A6005E0027911440A6803689A430A60D0
:100DE000704700000004014030B5044604254FF46C
:100DF000302000F089F80546042D17D10C48006911
:100E000040F002000A49086108464461006940F068
:100E1000400008614FF4302000F076F805460448A1
:100E2000006941F6FD71084001490861284630BD5E
:100E30000020024004200B49C96801F0010109B1FA
:100E400001200EE00749C96801F0040109B1022040
:100E500007E00449C96801F0100109B1032000E06E
:100E600004207047002002400348006940F08000E1
:100E700001490861704700000020024005490968E7
:100E800021F01001034A1160114609680143116005
:100E9000704700000020024070B504460D4604264D
:100EA000F00200F031F80646042E11D1094800691D
:100EB00040F00100074908612580F00200F024F8A5
:100EC00006460448006941F6FE7108400149086180
:100ED000304670BD0020024001460020034A1068E1
:100EE00000F0380008431060704700000020024006
:100EF000024803494860034848607047230167453A
:100F000000200240AB89EFCD00B502460423FFF775
:100F100091FF034603E0FFF78DFF0346521E012BAE
:100F200001D1002AF7D102B90523184600BD0000FF
:100F300010B500240A223449344801F059F83248E7
:100F4000008848285BD130484088492857D12E482E
:100F50008088542853D101202D4908702A480089DF
:100F60004D2802D0532808D103E0002029490870F9
:100F700007E001202749087003E000202549087098
:100F800000BF00BF204840893038052818D2DFE86C
:100F900000F003070B0F130000201F49087013E037
:100FA00001201D4908700FE002201B4908700BE06A
:100FB00003201949087007E004201749087003E06E
:100FC00000201549087000BF00BF062414E00E4839
:100FD00030F81400302804DB0B4830F814003928AE
:100FE00003DD3020084921F81400074810F81410D8
:100FF000A01F0A4A1154641C0A2CE8DB02E00020FE
:101000000349087010BD00003619002000200308B5
:10101000900000209100002092000020930000200A
:1010200008B501210D2000F001FC01210D4800F060
:10103000CBF84020ADF8000010208DF8030003200D
:101040008DF802006946084800F032F84FF48070CD
:10105000ADF8000004208DF803006946034800F055
:1010600027F808BD00023000000C014000080140D4
:1010700030B500228B071C0F0F2303FA04F20B4B31
:101080008C1053F824309343084C8D1044F82530CD
:1010900023468C1053F824308C07240F00FA04F4F4
:1010A0002343024C8D1044F8253030BD0800014028
:1010B0002DE9F041024600250026002000230024EF
:1010C000002791F803C00CF00F0591F803C00CF055
:1010D000100CBCF1000F03D091F802C04CEA0505DA
:1010E00091F800C0BCF1000F31D0146800202BE053
:1010F0004FF0010C0CFA00F3B1F800C00CEA030643
:101100009E4220D183004FF00F0C0CFA03F7BC4332
:1011100005FA03FC4CEA040491F803C0BCF1280F63
:1011200006D14FF0010C0CFA00FCC2F814C00AE022
:1011300091F803C0BCF1480F05D14FF0010C0CFA37
:1011400000FCC2F810C0401C0828D1D31460B1F8CC
:1011500000C0BCF1FF0F34DD546800202EE000F128
:10116000080C4FF0010808FA0CF3B1F800C00CEAC3
:1011700003069E4221D183004FF00F0C0CFA03F7B7
:10118000BC4305FA03FC4CEA040491F803C0BCF12B
:10119000280F05D100F1080C08FA0CF8C2F81480E9
:1011A00091F803C0BCF1480F07D100F1080C4FF0D3
:1011B000010808FA0CF8C2F81080401C0828CED3A9
:1011C0005460BDE8F0810000F0B50A460023002419
:1011D0000021002500F00046B6F1004F02D11D4E5F
:1011E000F16901E01B4E7168C0F3034583B200F45E
:1011F0004016B6F5401F08D121F07061154E766893
:1012000026F07066134F7E6012E000F48016B6F58B
:10121000801F06D1032606FA05F4A14341F0706150
:1012200006E0460D360103FA06F6B14341F070615F
:1012300022B1460D360103FA06F6314300F00046AE
:10124000B6F1004F02D1034EF16101E0014E716031
:10125000F0BD00000000014041617047016170472E
:1012600001460548006880B200EBC100001D034A3A
:1012700032F8100080B27047505C004000600040BF
:1012800001460648006880B200EBC100801D044A98
:1012900032F81000C0F3090070470000505C0040B5
:1012A0000060004001460548006880B200EBC100C4
:1012B000034A32F8100080B270470000505C0040D2
:1012C0000060004070B50A480468001D0568001DF4
:1012D0000668344454B108220649204600F044F818
:1012E000042204491031284600F03EF870BD000089
:1012F000E8F7FF1FAE00002010B518480068047A18
:10130000022C01D0042C05D1FFF7A0FA1348006885
:10131000047A1CE0062C19D1104800684078052892
:101320000ED10E480068007800F07F0040B90B49EC
:101330000968C87800F000FF09490968086A804711
:101340000849096888688047082400E008240349A0
:1013500009680C7200F0A8F910BD0000C801002057
:10136000D4010020CC01002030B50B46002100BF85
:1013700016E00A24B4EB107F05D9302404EB107476
:1013800003F8114005E0412404EB10740A3C03F813
:101390001140000100254C00641C1D554C1CE1B29D
:1013A0009142E6DB30BD00000548817A19B1052184
:1013B000044A116002E00121024A116070470000F6
:1013C00074240020B401002010B50A220249034809
:1013D00000F022FE10BD0000361900200020030896
:1013E000704700001FB52020ADF80C0028208DF8B4
:1013F0000F0003A91448FFF75BFE05210120FFF74A
:1014000037FE2020019000208DF8080008208DF87C
:10141000090001208DF80A0001A8FFF79BFC4FF49A
:10142000A06000F04BF817208DF8000002208DF826
:10143000010001208DF802008DF80300684600F0DD
:1014400005F8002004B010BD000C014070B500216B
:1014500000230F22C47804B3154C246804F4E0641C
:10146000C4F5E064210AC1F10403CA40447804FAD7
:1014700003F184781440214309010E4C0678A155EC
:10148000047804F01F050124AC4005786D11AD000F
:1014900005F1E025C5F8004109E0047804F01F05D6
:1014A0000124AC40044D0678761145F8264070BD05
:1014B0000CED00E000E400E080E100E002490143BF
:1014C000024A1160704700000000FA050CED00E0D0
:1014D00010B5002807DA8A07140E054A00F00F033A
:1014E0001B1FD45403E08A07130E024A135410BD85
:1014F00018ED00E000E400E070B5022647480068FF
:10150000447846480068007800F07F00002844D105
:10151000092C03D101F09CF906465FE0052C14D19B
:101520003E480068C0787F280BDC3C480068807823
:1015300038B93A480068808818B938480068807A15
:1015400008B1082565E0002648E0032C0ED1334899
:101550000068C078012807D130480068808818B931
:1015600001F09AF9064639E0022637E0012C35D120
:101570002A480068C07801280DD128480068808872
:1015800048B926480068407A00F0200018B100F001
:10159000EBFF064622E0022620E0204800680078A3
:1015A00000F07F00012805D10B2C17D101F0F0F9D4
:1015B000064613E019480068007800F07F00022812
:1015C0000BD1012C03D100F0CFFF064606E0032C1F
:1015D00004D101F075F9064600E002264EB1E0B2F2
:1015E0000F4A1268516988470646032E01D1092522
:1015F0000FE00EB108250CE006250021094800681F
:1016000080B2801C084A42F8101030200749088038
:1016100000BF024909680D7270BD0000C8010020BA
:10162000CC010020505C004000600040DA01002046
:1016300010B511480068047A022C01D0042C01D1A5
:10164000082412E0032C01D0052C05D1FFF75EF928
:1016500009480068047A08E0072C05D107490968A1
:10166000C8688047082400E00824034909680C7210
:1016700000F01AF810BD0000C8010020CC010020C5
:10168000F0B5561C7510074E06EB41042B4605E0DD
:1016900034F8047B20F8017B401C5B1E002BF7D143
:1016A000F0BD00000060004010B50D4890F82C100F
:1016B000002000F07BFD0B480068007A082805D167
:1016C0004002094908801020084908800548006840
:1016D000007A092801D1012010BD0020FCE700009C
:1016E00030010020C8010020D8010020DA010020CC
:1016F00010B5012001F064FC01240B4804600020B7
:101700000A49088008460088074908600020091D2A
:1017100008604FF4E05005490880084600880249F7
:101720000860002010BD0000405C0040D201002095
:1017300003461A60D960596099600020704770B5FF
:1017400003461446002200209A6800BF11E0DD68BD
:101750001E682E44551C2A46AE4200D8DA685D68E1
:10176000954200D107E011F8015B9E6835709A60E0
:10177000401CA042EBD300BF70BDF0B50346002073
:101780000EE05C68651C5D6027780546401C4F557F
:10179000DC681D682C445D68AC4201D8DC685C6084
:1017A0005C689D68AC4204D0904202D21C688442BE
:1017B000E7D8F0BD01460020034A506820F44040BD
:1017C00008435060704700000010024029B1064AEB
:1017D00052690243044B5A6104E0034A526982434E
:1017E000014B5A61704700000010024029B1064ABF
:1017F000D2690243044BDA6104E0034AD2698243AE
:10180000014BDA61704700000010024029B1064A1E
:1018100012690243044B1A6104E0034A12698243CD
:10182000014B1A61704700000010024029B1064ABE
:1018300092690243044B9A6104E0034A926982432D
:10184000014B9A61704700000010024029B1064A1E
:10185000D2680243044BDA6004E0034AD268824350
:10186000014BDA60704700000010024010B586B0EE
:1018700000F042F84FF4803000F002F900F064F913
:10188000044654B31020FFF7F9FA0220FFF724FBB7
:10189000002000F0E9F8002000F024F94FF4806007
:1018A00000F014F94FF40040FFF784FF4FF4E0110B
:1018B0004FF4803000F028F9012000F01FF900BF3C
:1018C000392000F0ABF80028FAD0022000F02AF905
:1018D00000BF00F0C1F80828FBD101A800F032F8E1
:1018E00001210803FFF7A2FF01210D20FFF79EFF52
:1018F000002006B010BD00000F48006840F0010055
:101900000D490860084640680C4908400A4948608B
:10191000084600680A490840074908600846006808
:1019200020F4802008600846406820F4FE004860EB
:101930004FF41F0088607047001002400000FFF85D
:10194000FFFFF6FE30B500210022002400232D4DBC
:101950006D6805F00C0121B1042905D0082923D1B7
:1019600005E0294D056022E0284D05601FE0254D6A
:101970006D6805F47012234D6D6805F480340225FE
:1019800005EB92421CB9224D554305600BE01D4DFD
:101990006D6805F400351DB11B4D5543056002E02F
:1019A0001A4D5543056002E0174D056000BF00BFAA
:1019B000144D6D6805F0F0010909164D6B5C056862
:1019C000DD4045600F4D6D6805F4E061090A114D79
:1019D0006B5C4568DD4085600A4D6D6805F46051BB
:1019E000C90A0C4D6B5C4568DD40C560054D6D68EE
:1019F00005F44041890B084D6B5CC568B5FBF3F5F8
:101A0000056130BD0010024000127A000024F4008D
:101A100000093D00480000205800002010B5014694
:101A20000022002300204A11012A02D1094C236818
:101A300006E0022A02D1074C236A01E0054C636AE2
:101A400001F01F02012494401C400CB1012000E071
:101A5000002010BD001002400248406800F00C0059
:101A6000704700000010024001460020034A506801
:101A700020F0F00008435060704700000010024062
:101A80001149096821F480310F4A11601146096833
:101A900021F480211160B0F5803F03D0B0F5802F94
:101AA0000ED106E00849096841F48031064A116008
:101AB00007E00549096841F4A021034A116000E0EC
:101AC00000BF00BF70470000001002400146002028
:101AD000034A506820F4E0600843506070470000FB
:101AE0000010024001460020034A506820F4605074
:101AF00040EAC1005060704700100240014908668A
:101B0000704700000000424202460020044B586823
:101B100020F47C1042EA01031843014B58607047DF
:101B20000010024001460020034A506820F00300E4
:101B300008435060704700000010024001490860EF
:101B400070470000D800424238B5002000900024C1
:101B5000002500BF3120FFF761FF05460098401CBB
:101B600000900098B0F5A06F01D0002DF2D0312088
:101B7000FFF754FF08B1012400E00024204638BDDF
:101B800070B50546072D01D02E4805702D48007808
:101B900008284ED2DFE800F004111A202B384E4FEF
:101BA0002948006828B900F053F806202549087034
:101BB00002E005202349087041E000F049F80420C4
:101BC0002049087001202049086038E002201D49A2
:101BD00048700320087032E01A484078401E1949C6
:101BE00048700846407808B90420087027E0174874
:101BF000006884B244F010041448046005201149C0
:101C000008700A2048701AE00E484078401E0D49BE
:101C100048700846407858B90C48006884B224F0EF
:101C200010040A4804600620087000200649086075
:101C300005E000BF00BF06200249087000BF00BFDA
:101C400070BD0000B9010020BC010020405C0040D4
:101C500010B50748006884B224F004040448046006
:101C6000FFF7A2FB4FF43F400149086010BD0000A0
:101C7000405C004010B5002413480068052822D1BC
:101C800012480078F8B912490868411C104A1160DE
:101C9000052818D100201146086040210D4801F0A8
:101CA000FDFA84B2002C0EDD2246C021094801F065
:101CB0000DFB2146012000F0E9FA012000F014FBA1
:101CC00001200249087010BDB4010020D40000209A
:101CD000D8000020D423002070B505460C46012111
:101CE0000846FFF773FD1B48FEF7B4FC1A481B4972
:101CF000086008464560002088600846C4600020EF
:101D000008618020486100208861C86108624FF442
:101D100040504862002088620E48FEF776FD00229F
:101D200002210C48FEF768FD002208210948FEF751
:101D300063FD4FF4A060FFF7C1FB0C200849087059
:101D400002204870002088700120C8700846FFF704
:101D50007DFB70BD1C0002400C3001407819002052
:101D60009B00002070B504460D4600210748FEF791
:101D700065FC06481C388462A9B20448FEF763FD7E
:101D800001210248FEF75AFC70BD00001C00024011
:101D900070B504460D4600210748FEF74FFC064883
:101DA0003038C463A9B20448FEF74DFD0121024852
:101DB000FEF744FC70BD00003000024070B50546DF
:101DC0000C4601210846FFF701FD1B48FEF742FCC7
:101DD0001A481B490860084645601020886008467C
:101DE000C460002008618020486100208861C861CB
:101DF00008624FF440504862002088620E48FEF7A7
:101E000004FD002202210C48FEF7F6FC0022082106
:101E10000948FEF7F1FC4FF4A060FFF74FFB0D20DF
:101E20000849087002204870002088700120C8709E
:101E30000846FFF70BFB70BD300002400C3001403C
:101E40004C1900209700002001460020044A108809
:101E50004FF6C77210400843014A108070470000D7
:101E60000030014021B1028842F04002028004E0CB
:101E700002884FF6BF731A400280704700B587B0E2
:101E8000294800F05FF80020ADF808004FF4827098
:101E9000ADF80A000020ADF80C00ADF80E00ADF86A
:101EA00010004FF40070ADF812001020ADF81400CF
:101EB0000020ADF816000720ADF8180002A91A4856
:101EC00000F06CF8A020ADF8040018208DF8070091
:101ED00003208DF8060001A91448FFF7E9F8402017
:101EE000ADF8040048208DF8070001A90F48FFF75E
:101EF000DFF81020ADF804008DF8070003208DF8FE
:101F0000060001A90948FFF7D3F80021064800F0B0
:101F100063F801210448FFF7A5FF10210348FFF7EC
:101F20009DF9002007B000BD0030014000080140CD
:101F30001AB183880B43838002E083888B438380BC
:101F40007047000010B504461148844208D10121B1
:101F50008014FFF77BFC0021A014FFF777FC16E04C
:101F60000C48844208D101210014FFF74FFC0021E6
:101F70002014FFF74BFC0AE00748844207D10121F7
:101F8000C013FFF743FC0021E013FFF73FFC10BD37
:101F90000030014000380040003C004010B50022F5
:101FA000028802F441520B884C8823438C882343D7
:101FB000CC8823430C8923434C8923438C892343B6
:101FC000CC8923431A430280838B4FF2FF74234052
:101FD00083830B8A038210BD21B1828842F0040200
:101FE000828004E082884FF6FB731A40828070473B
:101FF00030B503460C461546002207E0184600F0AF
:1020000008F824F812009B1C501C82B2AA42F5DB8F
:1020100030BD0146088870472DE9F05F80468A464A
:102020001746B8F1006F02D33348804501D3BDE8AD
:10203000F09FFEF75DFFA8F1006B4FEA9B25CBF305
:102040004809C9F50074A74200DC3C464DE04FF05A
:10205000006101EB85208A142849FFF7C9FF00269B
:102060000BE009EB0600254931F810004FF6FF712F
:10207000884200D003E0701C86B2A642F1DB00BFAC
:10208000A6421BDA4FF0006101EB8520FEF7ACFEA3
:10209000002608E03AF8160006EB0901174A22F874
:1020A0001100701C86B2A642F4DB4FF0006101EB18
:1020B00085208A14114900F023F804E02246514695
:1020C000404600F01DF8A74200D10FE06D1C4FF014
:1020D00000090AEB440AA044381B87B2B7F5007F19
:1020E00002DD4FF4007400E03C46B0E700BFFEF7AD
:1020F000BBFE00BF9BE7000000000408361500206F
:102100002DE9F04105460E461746002407E036F853
:1021100014102846FEF7C0FEAD1C601C84B2BC4201
:10212000F5DBBDE8F08100004FF6F8710140014A8F
:1021300011607047505C004030B501460F4B1A7873
:10214000002014E003060E4C04EB9353D3F8003C3C
:1021500048F68F74234048F280042343C4B22343DB
:102160000406074D05EB9454C4F8003C401C904213
:10217000E8D341F08003034C236030BD2C010020E4
:10218000005000404C5C004010B54A105300054A16
:10219000126892B202EBC002121D034C44F81230D6
:1021A00010BD0000505C00400060004010B50246C9
:1021B0000F48006880B200EBC200801D0D4C04EB9C
:1021C00040033E290BDD481101F01F040CB9441EE9
:1021D000A0B24FF4004444EA80241C6007E0481099
:1021E00001F001040CB1441CA0B284021C6010BDBB
:1021F000505C00400060004030B50E4C04EB8003A2
:10220000D3F8003C4BF68F7403EA040201F48053C8
:102210000BB182F4805201F400530BB182F40052EE
:1022200042F4004343F08003024D05EB8004C4F800
:10223000003C30BD0050004010B50B4B03EB80025A
:10224000D2F8002C4BF68F7302EA030181F480511F
:1022500081F4005141F4004242F08002024C04EB50
:102260008003C3F8002C10BD0050004010B54A1088
:102270005200044B1B689BB203EBC003024C44F8B2
:10228000132010BD505C004000600040044A1268FA
:1022900092B202EBC002921C024B43F8121070473C
:1022A000505C00400060004030B50E4C04EB8003F1
:1022B000D3F8003C48F6BF7403EA040201F01003AF
:1022C0000BB182F0100201F020030BB182F020026A
:1022D00042F4004343F08003024D05EB8004C4F850
:1022E000003C30BD0050004010B50B4B03EB8002AA
:1022F000D2F8002C48F6BF7302EA030181F0100106
:1023000081F0200141F4004242F08002024C04EBD3
:102310008003C3F8002C10BD0050004010B5074BDF
:1023200003EB8002D2F8002C48F68F131A400A43C0
:10233000024C04EB8003C3F8002C10BD0050004099
:1023400010B500F001F810BD0CB500200190009010
:102350003348006840F480303149086000BF30489D
:10236000006800F4003000900198401C0190009833
:1023700018B90198B0F5A06FF1D12948006800F4B0
:10238000003010B10120009001E000200090009882
:10239000012843D12348006840F01000214908601B
:1023A0000846006820F0030008600846006840F016
:1023B000020008601A4840681949486008464068A9
:1023C00048600846406840F48060486008464068BD
:1023D00020F47C1048600846406840F4F8104860DB
:1023E0000846006840F08070086000BF0C48006834
:1023F00000F000700028F9D00948406820F0030080
:10240000074948600846406840F00200486000BF45
:102410000348406800F00C000828F9D10CBD00000A
:10242000001002400020024008B54FF4A062154998
:102430001548FFF77DF94FF4A06214491448FFF7DF
:1024400077F901210420FFF7F1F90820ADF8000029
:1024500003208DF8020010208DF8030069460D4816
:10246000FEF726FE4FF48020FEF760FC4FF480203C
:102470000949086008204871012088710846FEF764
:1024800069FC08BDD4190020B4190020D41E002016
:10249000C419002000080140A400002010B500204D
:1024A000FFF74CFB0121C805FFF7A0F910BD0000A4
:1024B00038B501242948006880B2001D284931F848
:1024C000100080B201EB4000009026480068007ABE
:1024D000092832D0009800782249096808700098CD
:1024E000401C0090009800781E49096848700098C8
:1024F000401C0090009800EB44000090009931F8D7
:10250000020B0091FDF783FE164909684880009888
:1025100000EB44000090009931F8020B0091FDF7A8
:1025200076FE104909688880009800EB440000900E
:10253000009800880B490968C8800120094909688A
:10254000087208480068C08810B9FEF7D5FF01E09E
:10255000FEF73AFAFFF7A8F838BD0000505C0040DB
:1025600000600040C80100202DE9F0475448006891
:10257000007800F07F08B8F1000F0AD150480068D9
:10258000407A00F0DF004E49096848720020BDE83B
:10259000F087B8F1020F7CD149480068408818B92B
:1025A00047480068007908B10220F0E7DFF814918D
:1025B00043480068477927F080052C46404800686A
:1025C000407900F0800038B13F4901EB8400D0F839
:1025D000000C00F0300606E03B4901EB8400D0F827
:1025E000000C00F4405699F80000A84204D91EB12E
:1025F00033480068807A08B90220C8E707F08000F5
:1026000080B1314901EB8400D0F8000C00F03000BB
:1026100010284BD1E0B2FDF75FFFE0B23021FFF7A9
:1026200043FE43E0284901EB8400D0F8000C00F49D
:102630004050B0F5805F39D1E4B9244A92F82C10AB
:10264000E0B2FFF7B3FD204A02EB8401D1F8001C91
:102650004BF68F7201EA020080F4805080F4005043
:1026600040F4004141F08001174B03EB8402C2F8B3
:10267000001C1BE0E0B2FDF715FF134A02EB8401DA
:10268000D1F8001C4BF68F7201EA020080F48050F2
:1026900000E011E080F4005040F4004141F080017E
:1026A000094B03EB8402C2F8001C00BF084909680B
:1026B0004869804700206AE700BF022067E7000002
:1026C000C80100202C0100200050004030010020F3
:1026D000D401002010B504462CB901200649096830
:1026E0000882002010BD0549096808688047024833
:1026F00000680A30F6E70000C8010020D40100207D
:1027000010B5024606480068438A32B98888C01A64
:10271000034C24682082002010BD08681844FBE7A1
:10272000C801002010B504462CB9012006490968EB
:102730000882002010BD0549096888688047024862
:1027400000680C30F6E70000C8010020D40100202A
:1027500010B504462CB902203949096808820020C6
:1027600010BD00203749088035480068007800F027
:102770007F0018BB32490968487A00F0200131B166
:102780003049097841F002012E4A117005E02D49C7
:10279000097801F0FD012B4A117000F0400131B1C0
:1027A0002849097841F00101264A117005E02549C0
:1027B000097801F0FE01234A11703AE020480068D0
:1027C000007800F07F00012801D11E48C8E71C48AE
:1027D0000068007800F07F00022828D1184A1268AB
:1027E000517901F00F0001F080027AB1164B03EB32
:1027F0008002D2F8002C02F03002102A16D1114AC1
:10280000127842F001020F4B1A700FE00E4B03EBEF
:102810008002D2F8002C02F44052B2F5805F05D15C
:10282000084A127842F00102064B1A7001E00020BB
:1028300096E70649096808698047024890E7000062
:10284000C8010020C001002000500040D401002039
:1028500010B50E480068C0780D494978884213DCED
:102860000A480068807878B908480068808858B9B4
:1028700006480068C07805490968887205490968F2
:1028800048688047002010BD0220FCE7C8010020F6
:102890002C010020D401002010B507480068407AC0
:1028A00040F0200004490968487204490968C86971
:1028B0008047002010BD0000C8010020D401002086
:1028C0002DE9F0412E480068467926F080073C4605
:1028D0002B480068407900F0800038B1294901EBAD
:1028E0008400D0F8000C00F0300506E0254901EB2B
:1028F0008400D0F8000C00F4405523480078A04232
:1029000008D91F480068408820B91DB11C480068DC
:10291000807A10B90220BDE8F08106F08000A0B1F5
:10292000184A02EB8401D1F8001C48F6BF7201EA94
:10293000020080F0100040F4004141F08001114B92
:1029400003EB8402C2F8001C14E00E4A02EB84017F
:10295000D1F8001C4BF68F7201EA020080F480501F
:1029600040F4004141F08001064B03EB8402C2F8C1
:10297000001C00BF05490968886980470020CAE734
:10298000C8010020005000402C010020D40100208C
:1029900010B5174B1B68D978154B1B685879154B28
:1029A0001B689A699047044611480068807AE8B12C
:1029B0003CB90F480068007918B90D480068807864
:1029C00008B1022010BD8CB90B490968C86880475E
:1029D00007480068407906490968C87204480068D9
:1029E000C0780349096808730020EBE70220E9E793
:1029F000C8010020CC010020D401002038B50021FE
:102A0000002200230093394B1B6898B200BF09E0F5
:102A1000374C04EB8103D3F8003C9BB2354C44F8AF
:102A20002130491C0829F3D340F480602F4B1860F3
:102A300040F00100186020F00100186000BF2B4B2F
:102A40001B1D1B6803F48063002BF8D04FF6FF3387
:102A5000264C241D2360002109E0264B53F8213029
:102A60009BB2234D05EB8104C4F8003C491C0829A6
:102A7000F3D340F008001D4B18601B6898B240F07B
:102A800004001A4B18601C4B1B6800931A4B1A6801
:102A900022F0030242F001021A60184B1B6843F057
:102AA0000403164C2360114B1B1D1B6803F4805359
:102AB0002BB923461B6823F00403236014E04EF671
:102AC000FF730A4C241D2360231F1B6898B220F05B
:102AD0000800231F1860084C009B2360074B1B68ED
:102AE00023F00403054C236038BD0000405C004027
:102AF00000500040542400200070004010ED00E021
:102B000010B5134800684FF47A71B0FBF1F4B4F1DA
:102B1000807F01D3012010E024F07F40401E4FF061
:102B2000E02148610321081FFEF7D2FC00204FF08E
:102B3000E021886107200861002008B100BFFEE79E
:102B40000F214FF0FF30FEF7C3FC002010BD000046
:102B50005C00002002480068401C01490860704782
:102B60004000002010B51348006840F001001149F2
:102B7000086008464068104908400E494860084609
:102B800000680E4908400B4908600846006820F4B8
:102B9000802008600846406820F4FE0048604FF43A
:102BA0001F008860FFF7CCFB4FF00060044908600D
:102BB00010BD0000001002400000FFF8FFFFF6FE0D
:102BC00008ED00E010B50121880700F04EF818B1BB
:102BD0000121880700F03AF802480068401C0149CA
:102BE000086010BD440000207FB505460C46012159
:102BF0000846FEF7FBFDADF80850ADF80440002094
:102C0000ADF80600ADF80A0001A94FF0804000F0D1
:102C100047F801221146900700F038F84FF4A06001
:102C2000FEF74CFC1C208DF8000003208DF80100FD
:102C300001208DF802008DF803006846FEF706FCBF
:102C400000214FF0804000F004F87FBDCA430282AB
:102C5000704721B1028842F00102028004E002883C
:102C60004FF6FE731A400280704730B502460020CE
:102C700000230024158A05EA0103958905EA010469
:102C800013B10CB1012000E0002030BD1AB18389DE
:102C90000B43838102E083898B438381704700006B
:102CA000002202881D4B98420ED01D4B98420BD03B
:102CB000B0F1804F08D01B4B984205D01A4B984278
:102CC00002D01A4B984204D14FF68F731A404B88AA
:102CD0001A43174B984207D0164B984204D04FF630
:102CE000FF431A40CB881A4302808B8883850B8868
:102CF00003850A4B98420BD0094B984208D00E4BE3
:102D0000984205D00D4B984202D00D4B984201D10C
:102D10000B7A03860123838270470000002C014058
:102D2000003401400004004000080040000C004056
:102D300000100040001400400040014000440140E9
:102D40000048014010B540F22551094800F070F8E4
:102D500020B1074800F028F90649086005480068D6
:102D6000522803D14FF47A700349086010BD000067
:102D700000380140880000208C00002021B18289A9
:102D800042F40052828104E082894DF6FF731A40BA
:102D90008281704710B504462048844209D1012140
:102DA0008803FEF753FD00214FF48040FEF74EFDEF
:102DB00032E01B48844209D101214804FEF726FD78
:102DC00000214FF40030FEF721FD25E01548844234
:102DD00009D101218804FEF719FD00214FF480205C
:102DE000FEF714FD18E01048844209D10121C804FF
:102DF000FEF70CFD00214FF40020FEF707FD0BE06D
:102E00000A48844208D101210805FEF7FFFC002191
:102E10004FF48010FEF7FAFC10BD000000380140AE
:102E20000044004000480040004C0040005000407A
:102E300070B50246002400230025002040F66A16E3
:102E4000B14200D100BFC1F3421501F01F030126BA
:102E500006FA03F3012D02D19689334006E0022DD4
:102E600002D1168A334001E0968A33400C120126C3
:102E700006FA04F41688344013B10CB1012000E0C6
:102E8000002070BDF0B50346002400260025002078
:102E900040F66A17B94200D100BF1846C1F3421488
:102EA00001F01F06012707FA06F5012C01D10C30AD
:102EB00004E0022C01D1103000E014301AB1076890
:102EC0002F43076002E00768AF430760F0BD0000D2
:102ED0002DE9F04786B005460E460024A24600BF05
:102EE000A1460027B08900B100BF2F462C8A4CF6BE
:102EF000FF700440F08804432C82AC894EF6F31036
:102F00000440B08831890843718908430443AC8187
:102F1000AC8A4FF6FF400440B0890443AC8201A85C
:102F2000FEF710FD1F48874202D1DDF810A001E036
:102F3000DDF80CA0A88900F4004040B10AEBCA00FB
:102F400000EB0A1031684900B0FBF1F807E00AEB2A
:102F5000CA0000EB0A1031688900B0FBF1F8642068
:102F6000B8FBF0F004012009642101FB1089A88955
:102F700000F4004040B1322000EBC900B0FBF1F09A
:102F800000F00700044308E0322000EB0910642140
:102F9000B0FBF1F000F00F0004432C8106B0BDE857
:102FA000F08700000038014001468888C0F308001F
:102FB000704710B54FF48020FDF7B8FE10BD00003B
:102FC00010B5044624B908210448FEF745F903E08A
:102FD00008210248FEF742F910BD00000008014038
:102FE00010B5FFF721FAFFF759FA00F021F800F0C9
:102FF00001F810BD10B508480849086002200968AA
:1030000008720748074908600748084908600549E9
:1030100009680868804710BD74240020C80100209A
:1030200030010020CC01002060010020D4010020EC
:1030300008B54FF4A060FEF741FA14208DF80000A7
:1030400003208DF801008DF8020001208DF80300A7
:103050006846FEF7FBF92A208DF8000003208DF862
:10306000010002208DF802006846FEF7EFF908BD66
:1030700010B588B00024694800686949088008468E
:10308000008800F4007067490988084050B14FF685
:10309000FF506249086064480078401C624908702B
:1030A000FEF7E8FD5E48008800F400405D490988AD
:1030B000084008B1FDF7B2F85948008800F4806074
:1030C00058490988084030B14FF6FF30534908602D
:1030D0005649486880475248008800F400505149DA
:1030E0000988084018B14DF6FF704C4908604C48FB
:1030F000008800F480504B490988084030B14EF6F2
:10310000FF70464908600020FEF73AFD44480088F9
:1031100000F4006043490988084060B144480078E1
:1031200010B1FFF76BFC02E00220FEF729FD4FF221
:10313000FF703A4908603A48008800F480703949C5
:1031400009880840002866D04FF6FF6033490860C0
:10315000081D006800F40040002856D0354800687B
:10316000401C3449086008460068032850D92B48A1
:10317000001F006800F00800002849D12748001F00
:10318000006880B22C490860002408E02B4901EB5C
:103190008400D0F8000C80B24DF82400641C082C88
:1031A000F4D32548006840F0010023490860084630
:1031B000006880B21949091F08601F48006820F0A4
:1031C00001001D4908600846006880B21349091FC4
:1031D000086000BF1148006800F480600028F9D042
:1031E0004FF6FF300D490860002408E05DF8240028
:1031F00080B2124A02EB8401C1F8000C641C082C56
:10320000F4D300200B49086002E00020094908605F
:103210000720FEF7B5FC08B010BD0000445C00407C
:10322000DC000020D2010020DE0000203001002060
:10323000B8010020E0000020E40000200050004021
:1032400010B5FFF715FF10BD0020064908604FF4C8
:103250003F4005490880084600880249091F086068
:1032600000207047445C0040D20100202DE9F0416D
:1032700004460E46002504F07F00FEF701F80546DF
:1032800004F07F00FDF7ECFF07462A46394630463A
:10329000FEF7F6F92846BDE8F081000070B5044657
:1032A0000D462A4621460248FEF767FA70BD000027
:1032B000C419002070B504460D462A46214602482E
:1032C000FEF73DFA70BD0000C4190020F0B51446A9
:1032D00004F1010C4FEA6C07DFF824C00CEB41034A
:1032E0003D460AE00678401C90F800C046EA0C22F1
:1032F00023F8022B9B1C401C6D1E002DF2D1F0BD4B
:103300000060004070B504460025212C08D1124809
:103310000068007800F07F0021280ED10F4D0CE0EE
:10332000202C0AD10C480068007800F07F0021288A
:1033300000D10B4D20200B4908700DB9022070BD43
:10334000054800688561002103480068418200202B
:10335000A8470020F3E70000C801002091330008CF
:10336000213500082001002010B5044602492046FE
:10337000FFF7C6F910BD00008C01002010B504460F
:1033800002492046FFF7BCF910BD0000840100206F
:10339000014629B90820034A1268108200207047AC
:1033A0000148FCE7C80100202401002070B5054653
:1033B00006480068C478042C01DD002070BD044874
:1033C00000EBC4012846FFF79BF9F7E7C80100208E
:1033D000940100200246002901DD02207047012AE5
:1033E00001DD0220FAE70020F8E700000146084866
:1033F0000068007800F07F00212807D1022901D160
:1034000000207047222901D10020FAE70220F8E7C6
:10341000C801002010B5002034490968887234487A
:10342000C079324909684872002030490968C87279
:10343000FEF77AFE4FF400710020FEF76FFF1021B7
:103440000020FEF731FF40210020FEF79DFE802185
:103450000020FEF70BFF0020FDF758F8254890F8F4
:103460002C100020FEF7A2FE0020FEF7E5FE002152
:103470000120FEF753FFC0210120FEF7F7FE2021B7
:103480000120FEF711FF00210120FEF7B5FE4FF4E9
:10349000C0610220FEF742FF4FF480710220FEF768
:1034A000E5FE00210220FEF7A7FE20210220FEF704
:1034B000FBFE00210320FEF731FF4FF4887103204B
:1034C000FEF762FE40210320FEF770FE4FF44051EC
:1034D0000320FEF791FE00210320FEF7E5FE002009
:1034E000FEF72AFE01200449086010BDC801002033
:1034F0000849000830010020B40100200348817A07
:1035000011B10521024A11607047000074240020A7
:10351000B40100200420014908607047B401002074
:10352000014629B90820034A12681082002070471A
:103530000148FCE7C801002024010020034800786E
:10354000202802D100200149087070472001002086
:103550007047000010B5FDF7B5FE00200549096869
:103560008872FEF7C5F8FFF76FFE00200249086079
:1035700010BD0000C8010020B40100200FB4054BAD
:1035800010B503A9044A029800F0FAF810BC5DF8DF
:1035900014FB000071420008800000200FB4084BAB
:1035A00010B504A902AA039800F0EAF8044602A99B
:1035B000002000F086FA204610BC5DF814FB0000E5
:1035C000C33A000802E008C8121F08C1002AFAD155
:1035D00070477047002001E001C1121F002AFBD193
:1035E000704738B504466D2000906B46012240F6C6
:1035F00006012E2000F0A9FD3CB140F2076241F621
:1036000006012E2000F076FD06E041F2076241F649
:1036100006012E2000F06EFD38BD38B504466B461D
:1036200002220021362000F07BFC0E2C57D2DFE86E
:1036300004F011071A56565656233256563F464D39
:1036400000208DF800009DF8010000F0FE008DF8CC
:10365000010045E09DF8000000F0FC0040F0010092
:103660008DF800003CE09DF8000000F0FC0040F008
:1036700002008DF8000033E09DF8000000F0B30078
:1036800040F048008DF800009DF8010040F08000F7
:103690008DF8010024E09DF8000000F0B3008DF8E3
:1036A00000009DF8010000F07F008DF8010017E098
:1036B0009DF8010040F002008DF8010010E09DF837
:1036C000010000F0FD008DF8010009E09DF8000008
:1036D00000F0CF0040F020008DF8000000E000BFB7
:1036E00000BF6B4601220021362000F02EFD0DF1B7
:1036F000010301221146362000F027FD38BD08B530
:1037000003208DF8010001208DF800006B46022295
:103710000021362000F019FD4FF4004206212D2033
:1037200000F0E8FC012000F0D1F90120FFF775FF5F
:1037300008BD38B50446200A8DF80100E0B28DF8C6
:1037400000006B46022204212D2000F0FEFC032025
:103750008DF800006B46012206212D2000F0F5FCBB
:1037600000208DF800006B46012206212D2000F07C
:10377000ECFC0A212D2000F0B1FB0546284638BD9F
:103780002DE9FF4F8BB088460546002606E0252828
:103790000BD0DDE90D1290476D1C761C28780028AF
:1037A000F5D10FB03046BDE8F08F0024A146A24607
:1037B0000122AE4900E0044315F8013F203B02FA24
:1037C00003F00842F7D128782A2810D06FF02F0292
:1037D0002878A0F13001092915D809EB890102EBFD
:1037E000410144F0020400EB01096D1CF0E758F8B8
:1037F000041B5FEA010903D544F40054C9F1000930
:1038000044F002046D1C28782E2817D115F8010FFA
:1038100044F004042A280ED06FF02F022878A0F17B
:10382000300109290AD80AEB8A0102EB410100EBB9
:10383000010A6D1CF2E758F804AB6D1C28786C285F
:103840000FD006DC4C2817D068280DD06A2814D178
:1038500004E0742810D07A280FD10DE044F400144D
:103860000AE044F4801401E044F440146978814291
:1038700002D104F580146D1C6D1C2878692865D070
:1038800006DC00288DD0632827D0642806D15DE0AF
:103890006E2808D073282AD0752877D0DDE90D125C
:1038A0009047761CE0E0C4F30250022809D00328B8
:1038B0000DD0D8F8001004280DD00E6008F10408CF
:1038C000D2E0D8F80010F217C1E90062F6E7D8F8A4
:1038D00000100E80F2E70E70F0E718F8041B8DF868
:1038E000001000208DF80100EB46012003E058F89D
:1038F00004BB4FF0FF3061074FF0000701D40AE02E
:103900007F1C57450DDA8742FADB1BF807100029A8
:10391000F6D106E07F1C8742FCDB1BF8071000296C
:10392000F8D1DDE90D23A9EB07008146214600F01F
:10393000B1F83044C61904E0DDE90D121BF8010BA3
:1039400090477F1EF8D22146484688E058F8040B7D
:10395000C4F302514FF00A0B032900D100B204292D
:1039600000D140B2002802DA40422D2102E02105B8
:1039700005D52B218DF82410012104E006E0E10794
:1039800010D02021F6E708AF089113E058F8040B97
:10399000C4F302514FF00A0B032900D180B204296D
:1039A00000D1C0B20021EEE75946FCF7DDFB303113
:1039B00007F8011D0028F7D1ADEB070000F1200B3F
:1039C000600702D524F4803401E04FF0010ADA45A3
:1039D00002DDAAEB0B0000E00020824600EB0B01A9
:1039E00008980144A9EB01000A90E00306D4DDE940
:1039F0000D2321460A9800F04DF806444FF00009C7
:103A000008E009A911F80900DDE90D12904709F154
:103A10000109761C08998945F3DBE0030CD5DDE943
:103A20000D2321460A9800F035F8064404E0DDE94C
:103A30000D1230209047761CBAF10001AAF1010A5C
:103A4000F5DC05E0DDE90D1217F8010B9047761C57
:103A5000BBF10001ABF1010BF4DC0A982146DDE972
:103A60000D2300F005F806446D1C97E609280100B7
:103A70002DE9F041044600251E461746880404D46B
:103A800005E039462020B0476D1C641EF9D5284654
:103A9000BDE8F0812DE9F041044600251E46904620
:103AA000C80301D5302700E02027880404D505E0AD
:103AB00041463846B0476D1C641EF9D52846BDE81E
:103AC000F0810A68531C0B601070704770B5044693
:103AD00000F068FD051900BF00F064FD401B0028E0
:103AE000FADD70BD014651B1172001228240430921
:103AF0009B0003F1E023C3F8002100BF00BF704723
:103B000010B51720FDF718F9044644B1172001211C
:103B10008140044A430942F8231000BF00BF2046F9
:103B200010BD000080E100E02DE9F84F04464FF0A1
:103B30000009CA4625786079824931F8108060789A
:103B4000401E8149C6B20863042D01D0072D01D162
:103B5000012000E00020834620787B490873E0794B
:103B600038B90846806940F4800088614FEAE80867
:103B700005E07548806920F4800073498861207AE7
:103B80007149487308468069217A4FF4403202EA4D
:103B9000014108436C49886108460021826904207C
:103BA00000F0BBFA424642F604012E2000F0A2FAD1
:103BB0003046FFF716FD6548405D00EB8000644924
:103BC0004318052207212B2000F0BFFA614800EBC3
:103BD0000B0301220B21282000F0B7FA5B48405D5F
:103BE0005D4951F820200C21282000F096FAE07958
:103BF0005A4901EB8000A17930F8112002212720D9
:103C000000F078FA564830F816200421272000F0FA
:103C100071FAE07928B964220621272000F06AFAB7
:103C20001EE0A07804280DD110200090102206215B
:103C3000272000F05FFA6B4601222621272000F0A2
:103C400084FA0DE02820009020220621272000F091
:103C500051FA6B4601222621272000F076FA00BF98
:103C6000404800EB0610E17850F821200821272079
:103C700000F053FAB4F8090018B941F24100A4F871
:103C80000900B4F809202021272000F033FA364833
:103C90000C210268232000F040FA3348001D30F860
:103CA00016200421232000F025FAA07958B1E079EC
:103CB0002E49431801220021212000F046FA4FF03E
:103CC00003094FF0010A05F00F00F02101EA051188
:103CD000084361784FF4402202EA81410843910091
:103CE00001EA095108434FF4003101EA4A4108430F
:103CF00021794FF0F86202EA81510843617952015B
:103D000002EAC16140EA01073A4600211F2000F0A3
:103D100004FAA0786178084300040B49086108465A
:103D20000069E1794FF4004242EA41310843064913
:103D30000861084600210269082000F0EEF9002021
:103D4000BDE8F88FC4480008FC0C00204848000873
:103D50006848000886480008504800089448000851
:103D6000A0480008A44800088848000890480008B7
:103D700070B505460421362000F0B0F8044615B1B0
:103D800044F4006401E024F4006422460421362057
:103D900000F0C3F970BD00002DE9FC410446042089
:103DA00001900025002700203F4948750863002145
:103DB0003D4880F8251000203B4981F82C0088837D
:103DC0004863886300F0A6F8374908600846006831
:103DD0003649884202D08817BDE8FC810020FFF7F1
:103DE0001CFC4FF01F3200211E2000F096F901ABA1
:103DF00001220021242000F0A8F91E20FFF799FCE1
:103E000085B2280A284988730420FFF792FC0746E8
:103E1000F8B270B1022000906B46012212212D20D1
:103E200000F093F92048808B40F480501E4988832D
:103E300000BF0620FFF77DFC1B4948600720FFF705
:103E400078FC1949886005F01F0008750846007D58
:103E500008B9102008751449087D00F0EFF904F046
:103E6000010040B1FFF74BFC0F48808B40F400602D
:103E70000D4988830DE00521362000F019F806462B
:103E80004FF6FF50064032460521362000F032F949
:103E900000BF0120FFF7C1FB0021042000F01EF845
:103EA00001498861002097E7FC0C00203001CADE40
:103EB000F8B504460D464FF6FF76A9B2A0B26B46A0
:103EC000022200F02DF8074637B99DF800009DF852
:103ED000011000EB012086B23046F8BD2DE9F84311
:103EE00005460E464FF0FF37B1B2A8B26B4604222A
:103EF00000F016F88046B8F1000F08D1032404E062
:103F00001DF8040000EB0727641E002CF8DA384681
:103F1000BDE8F88310B500210846FFF7DFFF10BDAC
:103F20002DE9F84306460C461746984600252CB95D
:103F3000F2B228466D1C0DF800201BE0F0B240F0F4
:103F4000400228466D1C0DF800207F2C05DCE2B2F3
:103F500028466D1C0DF800200CE0E0B240F0800215
:103F600028466D1C0DF80020C4F3C71228466D1CAE
:103F70000DF80020A8B243463A46694600F018FB07
:103F8000BDE8F88338B5044604F00100B8B36B46C9
:103F9000022200212620FFF7C3FF9DF8010020F038
:103FA0003C008DF801009DF8010040F014008DF8F0
:103FB00001000DF1010301221146262000F0C5F891
:103FC0006B46012202213620FFF7AAFF9DF8000070
:103FD00040F084008DF800006B460122022136205B
:103FE00000F0B3F810208DF8000001208DF80100DA
:103FF0006B4602222821362000F0A7F815E0FFE7E3
:1040000004F0010088B96B46022200212620FFF748
:1040100087FF9DF8010020F014008DF801006B4629
:1040200002220021262000F090F804F0020088B15E
:104030000F208DF800006B4601222A21362000F067
:1040400084F800208DF800006B4601222A213620DA
:1040500000F07BF838BD0000F8B5044600250020CC
:104060000090002604F0020058B1802000906B46BA
:10407000012200210D2000F068F801201C4981F880
:104080002C0004F0010028B39DF8000040F0060069
:1040900000906B46012200210D2000F056F803210C
:1040A0000F20FFF705FF064606F4816008B90025DA
:1040B0001BE0402000906B46012200210D2000F003
:1040C00044F80020FFF754FE0020094981F82C0035
:1040D000451E0AE09DF8000040F0020000906B468B
:1040E000012200210D2000F030F82846F8BD000024
:1040F000FC0C0020F8B505460E461446E0B28DF8DB
:10410000000020128DF80100B1B2A8B26B46022265
:1041100000F01BF807463846F8BD2DE9F84306467F
:104120000F461446002504E0E0B20DF80500240A0D
:104130006D1C042DF8DBB9B2B0B26B46042200F05E
:1041400004F880464046BDE8F8832DE9F84306466A
:104150000C461746984600253CB9F0B240F0800264
:1041600028466D1C0DF800201BE0F0B240F0C002A4
:1041700028466D1C0DF800207F2C05DCE2B2284695
:104180006D1C0DF800200CE0E0B240F080022846E3
:104190006D1C0DF80020C4F3C71228466D1C0DF8E5
:1041A0000020A8B243463A46694600F00FFBBDE83E
:1041B000F883F8B506460F4614460025A019B0F559
:1041C000806F01DD681EF8BD2CB9892228466D1C60
:1041D0000DF8002019E0C92228466D1C0DF80020BA
:1041E0007F2C05DCE2B228466D1C0DF800200CE0A7
:1041F000E0B240F0800228466D1C0DF80020C4F3A8
:10420000C71228466D1C0DF80020B21EA8B23B460E
:10421000694600F091FAD6E770B504460D460648A7
:104220000069204340EA8556324600210820FFF706
:1042300074FF002070BD0000FC0C002038B504465F
:104240006B4601220E212B20FFF76AFE9DF800002D
:1042500020F01F00009004F01F009DF8001008439C
:1042600000906B4601220E212B20FFF76EFF38BD18
:1042700000BF054A128802F04002002AF9D0C2B2FB
:10428000014B1B1D1A807047003801407047000029
:1042900010B540210148FCF7DFFF10BD000C0140C4
:1042A00010B540210148FCF7D9FF10BD000C0140BA
:1042B00000F06CF941F61F4142F20F70FEF794FCDA
:1042C0004FF4E13000F0E4F9FCF7AAFEFDF7D6FD6B
:1042D0006420FFF7FBFBFCF72BFE6420FFF7F6FBE7
:1042E000FEF77EFE6420FFF7F1FB40F2FF318748C6
:1042F000FDF764FD40F2FF318548FDF7EDFC01223A
:1043000002218448FDF714FE012211468148FDF781
:104310000FFE81498148FFF741F9814908607F49D3
:104320007F4A126888187F49FFF738F97C49096885
:1043300008447B4908607949794A126888187A49A3
:10434000FFF72CF9764909680844754908607349F4
:10435000734A126888187349FFF720F97049096891
:1043600008446F4908606D496D4A126888186F49A2
:10437000FFF714F96A490968084469490860084662
:1043800001686648FEF796FF0DE011216848FEF7C8
:1043900091FFFFF785FF6420FFF798FBFFF778FF99
:1043A0006420FFF793FB634800780028EDD01421C8
:1043B0006148FEF77FFF03216048FEF77BFF08217D
:1043C0005FA0FEF777FF60A0FFF760FF00F030F915
:1043D00000F059F90020FFF7DFFC401C20B95EA077
:1043E000FFF754FF00BFFEE700F048F95D48007892
:1043F00030B95D48FFF798FB01205C49086005E093
:104400005B48FFF791FB0020584908600120FFF747
:10441000B9FD0020574908600AE0564801783B483A
:10442000544A1268815453480068401C514908603E
:104430005048006840F2FE318842EEDB01218807D7
:10444000FEF707FC00204C4908605DE000BF4748CC
:104450000068012803D0494800680028F7D00122ED
:1044600000210D20FFF746FE002140F2FF30FFF74C
:10447000D3FE0020FFF7F0FD0022244940F2FF3078
:10448000FFF797FE00BF3E4800680128FBD00822D6
:1044900000210D20FFF72EFE00BF00210F20FFF7A7
:1044A0001DFD00F080000028F7D0802200210F20A1
:1044B000FFF733FE154890F8E803401C134981F8D4
:1044C000E803084690F8FE03401E81F8FE032D48DD
:1044D0000068401C2B49086028480068401E274996
:1044E00008602548006878B104212648FEF7E2FEFE
:1044F000002024490860204908601C480068012801
:1045000002D121A0FFF73AF8A0E70000DC0100206B
:10451000DB05002000300140684A00086A0B0020DB
:104520003400002090490008D8490008204A0008BB
:104530001C00002090000020361900202D000020D3
:1045400053544152540D0A0053494D504C45205488
:10455000582076312E320000494E495420464149B8
:104560004C45440091000020000000203C00002049
:104570000B00002038000020440000208C000020A8
:1045800074000020180000205200000010B5FEF753
:10459000E9FAFDF76BF9FEF7B3FAFCF723FF002009
:1045A00010BD000001480068704700004000002076
:1045B0002DE9F04706460F4690461D460024FFF7BA
:1045C0009FFA814610201849086000BF0DE0385D51
:1045D0001649888100BF1548008900F001000028B5
:1045E000F9D0124880892870641CB442EFDB0024A3
:1045F0000DE000200D49888100BF0C48008900F0C3
:1046000001000028F9D0094880892855641C4445D8
:10461000EFD310200449091F08604846FFF762FAEB
:104620000020BDE8F0870000140801400030014080
:1046300008B50120ADF8000010208DF8030003201C
:104640008DF8020069460C48FCF732FD01210A484A
:10465000FCF702FE0120ADF8000000208DF80300F9
:1046600003208DF8020069460348FCF721FD022073
:10467000FFF72CFA08BD00000008014000B5082033
:10468000FDF7E2FB00BD00B52020FDF7DDFB00BD1E
:1046900010B586B00446012144F20400FDF7C6F8C7
:1046A0002348FEF777FB4FF40070ADF814000320A9
:1046B0008DF8160018208DF8170005A91D48FCF785
:1046C000F7FC4FF48060ADF8140004208DF817005B
:1046D00005A91848FCF7ECFC25208DF80000012006
:1046E0008DF8010003208DF8020001208DF80300F1
:1046F0006846FCF7ABFE01940020ADF80800ADF869
:104700000A00ADF80C00ADF810000C20ADF80E005A
:1047100001A90748FEF7DCFB012240F225510448BD
:10472000FEF7B0FB01210248FEF728FB06B010BDE2
:1047300000380140000801402DE9F04705460E46CB
:10474000174698460024FFF7DBF9814600201949F7
:1047500008601949086010201849086000BF0CE083
:10476000305D1749888100BF1548008900F00100BD
:104770000028F9D012488089641CAC42F0DB012289
:1047800008211048FCF738F8012202210D48FCF7F7
:1047900033F801200749086039460B48FDF7E2FA73
:1047A00039464046FDF7F4FA4846FFF79BF90020EA
:1047B000BDE8F087740000207C0000201408014050
:1047C0000030014030000240371100202DE9F04751
:1047D00005460E46174698460024FFF791F9814694
:1047E00010201749086000BF0CE0305D1549888132
:1047F00000BF1448008900F001000028F9D01148DA
:104800008089641CAC42F0DB00240DE018F8040041
:104810000C49888100BF0B48008900F00100002886
:10482000F9D008488089641CBC42EFD310200449A9
:10483000091F08604846FFF755F90020BDE8F087DA
:10484000140801400030014000000102030400058B
:10485000405C0000A05C0400C06C0800805C0400A8
:10486000E03F1E00E07D1E00070400091E08054011
:104870000826091040085608054008261D040008AF
:10488000BE1D040008BED8BC07A9022570889B88FD
:10489000401008000A001600010006000100020096
:1048A00087008D002D001A3152001A339A001A35F4
:1048B0001D011A376B003B31BE003B335E013B35B7
:1048C00096023B37000099599959EB518F421E458A
:1048D000142E0080EB51F5283333E13A703DE13A74
:1048E000C235852BC2353333C235C235AE47E13AC6
:1048F0005138A330513812010002020000408304F5
:10490000405700020102030109024300020100C0F6
:104910003209040000010202010005240010010513
:104920002401000104240202052406000107058277
:10493000030800FF09040100020A00000007050344
:10494000024000000705810240000004030904182A
:1049500003480069006B0065007200200073007559
:1049600000640069006F002603560069007200743D
:1049700000750061006C00200043004F004D0020D6
:104980000050006F00720074002000200000000042
:104990007C202020202020202020202020202020BB
:1049A0002020202020202020202020202020202007
:1049B00020202020202020202020202020202020F7
:1049C00020202020202020202020202020202020E7
:1049D00020200D0A000000007C2020202020202024
:1049E0002020202020202020202020202055574239
:1049F000C9E8B1B820202020202D202020B2D5C425
:104A0000DAB2D5BCE4CDA8D0C520202020202020BB
:104A1000202020202020202020200D0A000000003F
:104A20007C2A2A2A2A2A2A2A2A2A2A2A2A2A2A2A94
:104A30002A2A2A2A2A2A2A2A2A2A2A2A2A2A55577E
:104A400042C4A3BFE9B2E2CAD42A2A2A2A2A2A2ABD
:104A50002A2A2A2A2A2A2A2A2A2A2A2A2A2A2A2AB6
:104A60002A2A0D0A000000007C2A2A2A2A2A2A2A39
:104A70002A2A2A2A2A2A2A2A2A2A2A2AB9FEB6FBD6
:104A8000B1F5B9A4D2B5B4F3D1A7B5BCBABDD2C7FC
:104A9000C6F7D1D0BEBFCBF92A2A2A2A2A2A2A2A27
:104AA0002A2A2A2A2A2A2A2A2A2A0D0A000000004B
:104AB000D04A000800000020DC010000B801000816
:104AC000A04B0008DC010020B4320000D4350008FF
:104AD00014020104170303010203411A050B3B04EE
:104AE000040B611011C7EBC5E4D6C3C9E8B1B8B275
:104AF000CECAFD0D0A1903011C193B293F100A04F7
:104B00000607080902040608ACA24A041C29180179
:104B10003C14260356126912721274127512611235
:104B20006C12201243124F1A4D0812503A6F181A85
:104B30002002011613610C0C1C08E113040A11B1C8
:104B4000245133C20112081A0407135535140815ED
:104B5000341B083D081A51041305331B08ED041AD1
:104B6000D5041A7D041A69041AAD0441324029445F
:104B70001AFD300916741A154413F6482B081262F0
:104B800012493308431A4B0832041A4F0832181AD4
:104B90006708322622AC2A20084129920120000011
:0400000508000131BD
:00000001FF
