:020000040800F2
:1000000000000120A91C0008F11C0008F11C0008D8
:10001000F11C0008F11C0008F11C000800000000A1
:10002000000000000000000000000000F11C0008BB
:10003000F11C000800000000F11C0008491F000826
:10004000F11C0008F11C0008F11C0008F11C00085C
:10005000F11C0008F11C0008F11C0008F11C00084C
:10006000F11C0008F11C0008F11C0008F11C00083C
:10007000F11C0008F11C0008F11C0008F11C00082C
:10008000F11C0008F11C0008F11C0008F11C00081C
:10009000F11C0008F11C0008F11C0008651F000895
:1000A000F11C0008F11C0008F11C0008F11C0008FC
:1000B000F11C0008F11C0008F11C0008F11C0008EC
:1000C000F11C0008F11C0008F11C0008F11C0008DC
:1000D000F11C0008F11C0008F11C0008F11C0008CC
:1000E000F11C0008F11C0008F11C000800000000D1
:1000F0000000000000000000000000000000000000
:100100000000000000000000F11C0008F11C0008C5
:10011000F11C0008F11C0008F11C0008F11C00088B
:10012000F11C0008F11C0008F11C0008F11C00087B
:10013000F11C0008F11C0008F11C0008F11C00086B
:10014000F11C0008F11C0008F11C0008F11C00085B
:10015000000000000000000000000000000000009F
:10016000000000000000000000000000000000008F
:10017000000000000000000000000000000000007F
:10018000000000000000000000000000000000006F
:10019000000000000000000000000000000000005F
:1001A000000000000000000000000000000000004F
:1001B000000000000000000000000000000000003F
:1001C000000000000000000000000000000000002F
:1001D000000000000000000000000000000000001F
:0401E0005FF8E0F1F3
:1001E40010B5054C237833B9044B13B10448AFF36D
:1001F40000800123237010BD68040020000000006B
:10020400782A000808B5034B1BB103490348AFF330
:10021400008008BD000000006C040020782A00085B
:1002240070B50D4E0D4D761BB61006D0002455F852
:10023400043B01349847A642F9D1094E094D02F016
:1002440019FC761BB61006D0002455F8043B013483
:100254009847A642F9D170BD902A0008902A000858
:10026400982A0008902A0008024B13B1024800F0B3
:1002740005B87047000000008D0200080023014605
:100284001A46184600F01AB838B5084B084D5B1BDF
:100294009C1007D0043B1D44013C55F80439984791
:1002A400002CF9D1BDE8384002F0EABB9C2A0008D2
:1002B400982A0008704700BF704700BF2DE9F04737
:1002C400DFF880A00646DAF8000098460F4691460B
:1002D400FFF7F0FF1A4B1B68D3F8484124B3656855
:1002E4001F2D26DC5EB96B1C0235DAF80000636052
:1002F40044F82570FFF7E0FF0020BDE8F0870123F4
:1003040004EB8501C1F88890D4F88821AB401A43E6
:10031400022EC4F88821C1F80881E4D1D4F88C21D4
:100324001343C4F88C31DEE703F5A674C3F84841DF
:10033400D5E7DAF80000FFF7BFFF4FF0FF30DCE746
:10034400C02900082804002080B500AF1A4B1B68A0
:10035400194A43F001031360174B5A681649174BA7
:1003640013404B60144B1B68134A23F0847323F42B
:1003740080331360104B1B680F4A23F480231360EF
:100384000D4B5B680C4A23F4FE0353600A4B1B6855
:10039400094A23F0A0531360074B4FF47F029A607D
:1003A400054B0022DA6200F00DF8054B4FF00062B5
:1003B4009A6000BF80BD00BF001002400000FFF043
:1003C40000ED00E080B500AF00F002F800BF80BD92
:1003D40080B483B000AF00237B6000233B60474BB5
:1003E4001B68464A43F480331360444B1B6803F490
:1003F40000333B607B6801337B603B68002B03D197
:100404007B68B3F5A06FF0D13C4B1B6803F4003359
:10041400002B02D001233B6001E000233B603B68DA
:10042400012B66D1364B1B68354A43F01003136029
:10043400334B1B68324A23F003031360304B1B68B1
:100444002F4A43F0020313602C4B2C4A5B68536021
:100454002A4B2A4A5B685360284B5B68274A43F45B
:1004640080635360254BDA6A2449264B1340CB62E0
:10047400224BDB6A214A43F4833343F04403D362BF
:100484001E4B1B681D4A43F08063136000BF1B4B67
:100494001B6803F00063002BF9D0184B5B68174A04
:1004A40023F47C135360154B5B68144A43F4E8133C
:1004B4005360124B1B68114A43F08073136000BFF2
:1004C4000E4B1B6803F00073002BF9D00B4B5B68D9
:1004D4000A4A23F003035360084B5B68074A43F05E
:1004E4000203536000BF054B5B6803F00C03082B49
:1004F400F9D100BF0C37BD4680BC704700100240E4
:100504000020024000F0FEFF90B587B000AF786095
:100514000023FB8200233B619F4B1B6800221A755A
:100524009D4B1B6800225A759B4B1B680022DA8284
:10053400994B1B6800229A62974B1B680022DA626F
:10054400954B1B6800221A63934B1B6800225A6365
:1005540000F026F90346914A934202D04FF0FF334C
:1005640015E17B6803F00203002B01D100F084FD48
:100574007B6803F00203002B04D07B6803F0F803CC
:10058400002B02D1002000F083FC0422002124204F
:1005940000F0C7FB7B6803F00203002B16D1042094
:1005A40000F015FC38613B69DBB2002B1FD002223E
:1005B40012212D2000F0B5FB774B1B68DA8A764BAD
:1005C4001B6842F4805292B2DA8210E03021282073
:1005D40000F063FB0346B3F1883F08D06E4B1B6801
:1005E400DA8A6D4B1B6842F4805292B2DA827B68DD
:1005F40003F00203002B09D07B6803F00203002BF5
:1006040011D07B6803F00803002B0CD01E2000F0EF
:10061400DEFB0346FB82FB8A1B0A9AB25E4B1B6815
:10062400D2B2DA7203E05C4B1B680022DA727B6898
:1006340003F00203002B0BD1FB8A03F01F03002BF2
:1006440001D11023FB82FB8ADBB2184600F03AFD8D
:100654007B6803F01003002B07D04F4B1C68062067
:1006640000F0B5FB0346236003E04B4B1B680022FC
:100674001A607B6803F02003002B07D0464B1C68EC
:10068400072000F0A4FB0346636003E0424B1B68B1
:1006940000225A607B6803F04003002B08D0082036
:1006A40000F095FB02463C4B1B68D2B21A7203E081
:1006B400394B1B6800221A727B6803F08003002BFD
:1006C40008D0092000F083FB0246334B1B68D2B2EA
:1006D4005A7203E0304B1B6800225A727B6803F0A5
:1006E4000203002B21D17B6803F00103002B0BD004
:1006F40000F0BAFB284B1B68DA8A274B1B6842F4CC
:10070400006292B2DA821EE00521362000F0ECFA93
:100714000346FB81FB8923F40073FB81FB891A46A2
:100724000521362000F010FB0DE07B6803F0040384
:10073400002B08D1184B1B68DA8A174B1B6842F44C
:10074400006292B2DA82012000F0A2FB00220A21A8
:100754002C2000F0E6FA104B1C680021042000F065
:100764009CFA034623610C4B1B681B691B0CDAB211
:10077400094B1B6802F00302D2B29A72064B1C6842
:100784000021082000F089FA0346E360002318469C
:100794001C37BD4690BD00BF300400203001CADEC6
:1007A40080B500AF0021002000F077FA0346184618
:1007B40080BD80B582B000AF78607B681B781A4634
:1007C4000B212A2000F0ADFA7B685B681A460021F1
:1007D4001E2000F0D5FA00BF0837BD4680BD0000DA
:1007E40080B586B000AF78600023FB750023BB752D
:1007F4007B681B78FB747B685B791A46A14B33F8E2
:100804001230BB827B685B78013BBB74FB7C042B9E
:1008140002D0FB7C072B01D1012300E000237B7471
:100824007B68DB79002B0BD1974B1B681A69964BBD
:100834001B6842F480021A61BB8ADB08BB8207E0B2
:10084400914B1B681A69904B1B6822F480021A6151
:100854008D4B1B687A68127A9A728B4B1B681A69E3
:10086400894B1B6822F440321A61874B1B68196953
:100874007B681B7A1B0403F44032834B1B680A43D6
:100884001A61814B1B681B691A460021042000F081
:1008940077FABB8A1A4642F604012E2000F054FA75
:1008A400BB7C184600F0C0FAFB7C784AD35C1A463D
:1008B400774B53F822301A4607212B2000F060FAB8
:1008C400FB7C724AD35C1A46724B9B5C1A460B2122
:1008D4002B2000F026FA7B7C6F4AD35C1A460B214E
:1008E400282000F01EFAFB7C684AD35C1A466B4B46
:1008F40053F822301A460C21282000F041FA7B6874
:10090400DB7918467B689B791946654A43000B449A
:1009140032F813301A460221272000F015FABB7C66
:10092400604A32F813301A460421272000F00CFAEA
:100934007B68DB79002B05D164220621272000F097
:1009440003FA18E07B689B78042B0AD11022062155
:10095400272000F0F9F910222621272000F0E1F9E0
:1009640009E020220621272000F0EEF92822262182
:10097400272000F0D6F9BB7C7A68D27811464A4A1F
:100984009B000B4452F823301A460821272000F01C
:10099400F7F97B685B89002B03D17B6841F2410244
:1009A4005A817B685B891A462021272000F0CCF904
:1009B4003E4B1B681A460C21232000F0E1F9BB7C56
:1009C4003A4A5B0013449B881A460421232000F012
:1009D400BBF97B689B79002B0DD07B68DB791A46C9
:1009E400334B9B5C1A460021212000F09AF9032323
:1009F400FB750123BB75FB7C03F00F02FB7C1B0121
:100A0400DBB21A437B685B789B0403F440231A43EC
:100A1400FB7D1B0503F440131A43BB7D5B0403F405
:100A240000331A437B681B799B0503F0F8631A4370
:100A34007B685B79DB061343FB60FA6800211F20A7
:100A440000F09EF97B689A787B685B781343DBB28D
:100A540019047B68DB795A030B4B1B680A43DA6081
:100A6400094B1B68DB681A460021082000F088F94E
:100A7400422200210D2000F054F900BF1837BD4672
:100A840080BD00BF442A000830040020C4290008A7
:100A9400E4290008FC290008042A0008CC290008DD
:100AA400142A0008202A0008242A0008082A00081A
:100AB400102A000880B582B000AF03463960FB807D
:100AC4001346BB80BA88FB881344B3F5806F09DCF6
:100AD400FB88023B1A46B9883B68092000F028F8D5
:100AE400002301E04FF0FF3318460837BD4680BDB0
:100AF40080B584B000AF03463A60FB800B46BB80F0
:100B04000A4B1B68DA68FB881A43BB889B051A43A7
:100B14003B68DB031343FB60FA680021082000F004
:100B24002FF900BF1037BD4680BD00BF3004002040
:100B340080B586B000AFBA607B600346FB810B468C
:100B4400BB8100237B61BB89002B0DD1FB89DAB209
:100B54007B69591C796162F07F02D2B207F11801F6
:100B64000B4403F8082C33E0FB89DAB27B69591C87
:100B7400796162F03F02D2B207F118010B4403F825
:100B8400082CBB897F2B0AD87B695A1C7A61BA89E5
:100B9400D2B207F118010B4403F8082C18E0BB8902
:100BA400DAB27B69591C796162F07F02D2B207F133
:100BB40018010B4403F8082CBB89DB0999B27B6943
:100BC4005A1C7A61CAB207F118010B4403F8082CC5
:100BD4007B6998B207F110017B68BA6800F0B6FA35
:100BE40000BF1837BD4680BD80B586B000AFBA607F
:100BF4007B600346FB810B46BB8100237B61BB8981
:100C0400002B0AD17B695A1C7A61FA89D2B207F1A6
:100C140018010B4403F8082C33E0FB89DAB27B6932
:100C2400591C796142F04002D2B207F118010B4419
:100C340003F8082CBB897F2B0AD87B695A1C7A617C
:100C4400BA89D2B207F118010B4403F8082C18E052
:100C5400BB89DAB27B69591C796162F07F02D2B236
:100C640007F118010B4403F8082CBB89DB0999B27E
:100C74007B695A1C7A61CAB207F118010B4403F864
:100C8400082C7B6998B207F110017B68BA6800F000
:100C940093FA00BF1837BD4680BD80B586B000AF5B
:100CA4007860396000237B617B6898B23B6899B2B5
:100CB40007F10C030422FFF797FF03233B610BE0CA
:100CC4007B691B0207F10C013A690A441278134448
:100CD4007B613B69013B3B613B69002BF0DA7B693B
:100CE40018461837BD4680BD80B584B000AF786023
:100CF40039600023FB817B6898B23B6899B207F1A5
:100D04000C030222FFF770FF7B7B9BB21B029AB29B
:100D14003B7B9BB21344FB81FB8918461037BD46CD
:100D240080BD80B584B000AFF860B9601346FB7134
:100D3400FB6898B2BB6899B2FB1D0122FFF7F8FE6D
:100D440000BF1037BD4680BD80B586B000AFF860E7
:100D5400B9601346FB80FB88DBB23B75FB881B0A3A
:100D64009BB2DBB27B75FB6898B2BB6899B207F1A2
:100D740014030222FFF7DCFE00BF1837BD4680BD16
:100D840080B586B000AFF860B9607A6000237B61FB
:100D94000DE07B68D9B207F110027B6913440A465F
:100DA4001A707B681B0A7B607B6901337B617B69FA
:100DB400032BEEDDFB6898B2BB6899B207F1100310
:100DC4000422FFF7B5FE00BF1837BD4680BD80B5CD
:100DD40084B000AF0346FB80FB881A4604212D2013
:100DE400FFF7B2FF032206212D20FFF79AFF00220E
:100DF40006212D20FFF795FF0A212D20FFF74DFF37
:100E0400F860FB6818461037BD4680BD80B500AF5A
:100E1400002202212C20FFF784FF022202212C2031
:100E2400FFF77FFF00BF80BD80B582B000AF786060
:100E34006D2240F606012E20FFF773FF7B68002B1E
:100E440007D040F2076241F606012E20FFF77CFF2F
:100E540006E041F2076241F606012E20FFF774FF17
:100E640000BF0837BD4680BD80B500AF0E2000F03E
:100E74000FF84FF4004206212D20FFF765FF0120F3
:100E840001F009F8012000F003F800BF80BD000064
:100E940080B584B000AF786007F10C030222002112
:100EA4003620FFF7A1FE7B680E2B76D801A252F8FC
:100EB40023F000BF050F0008F50E00081B0F000803
:100EC4009F0F00089F0F00089F0F00089F0F000846
:100ED400310F0008510F00089F0F00089F0F0008F2
:100EE400670F0008730F00087F0F0008950F0008B4
:100EF40000233B737B7B23F00103DBB27B734DE068
:100F04003B7B5BB223F003035BB243F001035BB2B0
:100F1400DBB23B7342E03B7B5BB223F003035BB287
:100F240043F002035BB2DBB23B7337E03B7B5BB263
:100F340023F04C035BB243F048035BB2DBB23B7378
:100F44007B7B63F07F03DBB27B7327E03B7B23F087
:100F54004C03DBB23B737B7B03F07F03DBB27B731D
:100F64001CE07B7B43F00203DBB27B7316E07B7BEC
:100F740023F00203DBB27B7310E03B7B5BB223F014
:100F840030035BB243F020035BB2DBB23B7305E09A
:100F940001233B7303237B7300E000BF07F10C03C1
:100FA400012200213620FFF7C3FD07F10C030133B2
:100FB400012201213620FFF7BBFD00BF1037BD46DB
:100FC40080BD00BF80B500AF0020FFF761FF0022A5
:100FD40004213620FFF7B8FE00BF80BD80B584B081
:100FE40000AF0346FB710023FB600023FB72002368
:100FF4003B81FB7903F00203002B05D08023FB72B5
:101004001C4B1B6801225A75FB7903F00103002B6A
:1010140020D0FB7A43F00603FB72FB7A1A460021C8
:101024000D20FFF77EFE03210F20FFF75DFE034630
:101034003B813B8903F48163002B02D10023FB60D5
:1010440012E0402200210D20FFF76BFE4FF0FF332A
:10105400FB6009E0FB7A43F00203FB72FB7A1A4659
:1010640000210D20FFF75DFEFB6818461037BD46D2
:1010740080BD00BF3004002080B500AFFFF7A2FFA1
:10108400002200212C20FFF75FFE002206212C20E5
:10109400FFF747FEFFF7BAFE002203213620FFF7D1
:1010A40040FE012000F0F7FEF02203213620FFF776
:1010B40038FE034B1B6800225A7500BF80BD00BF79
:1010C4003004002080B584B000AF0346FB7197F96B
:1010D400073003F01F035BB243F060035BB2FB73A2
:1010E400FB7B1A460E212B20FFF71BFE00BF103797
:1010F400BD4680BD80B582B000AF7860FFF762FF67
:101104004FF4FF1200212820FFF73AFE0E4A002177
:101114002820FFF735FE0220FFF7BAFE0D20FFF767
:10112400B7FE7B68032B01D804237B607A68002117
:101134000A20FFF725FE102224212F20FFF7F1FDBE
:1011440000BF0837BD4680BD00FF5F002DE9784130
:1011540016461D4680460C4600F07CFE1022144BB9
:101164005A61B8F1000F0CD02346124C03EB08026D
:1011740013F8011BA1812189C907FCD59342A189D8
:10118400F6D166B1AC190B4A013C691E11F8013F56
:1011940093811389DB07FCD58C429389F6D1102205
:1011A400034B1A6100F069FE0020BDE8788100BF9E
:1011B40000080140003001402DE9784116461D46E3
:1011C40080460C4600F046FE1022164B5A61B8F1D8
:1011D400000F0DD02346144C03EB080213F8011B37
:1011E400A1812189C907FCD5A18993422970F5D130
:1011F4007EB14FF0000CAC190B4A013C691EA2F8F9
:101204000CC01389DB07FCD5938901F8013F8C429C
:10121400F5D11022034B1A6100F02FFE0020BDE827
:10122400788100BF000801400030014080B489B0DB
:1012340000AF786039600023FB6100233B61002329
:10124400BB610023FB6000237B610023BB603B6820
:10125400DB7803F00F03FB613B68DB7803F01003DA
:10126400002B05D03B689B781A46FB691343FB614E
:101274003B681B88DBB2002B44D07B681B687B6116
:101284000023BB6138E00122BB6902FA03F3FB606F
:101294003B681B881A46FB6813403B613A69FB684C
:1012A4009A4226D1BB699B00FB600F22FB6802FABD
:1012B40003F3BB60BB68DB437A6913407B61FA6963
:1012C400FB6802FA03F37A6913437B613B68DB78BA
:1012D400282B05D10122BB699A407B685A6108E03A
:1012E4003B68DB78482B04D10122BB699A407B68B8
:1012F4001A61BB690133BB61BB69072BC3D97B6826
:101304007A691A603B681B88FF2B46D97B685B6847
:101314007B610023BB613AE0BB690833012202FA16
:1013240003F3FB603B681B881A46FB6813403B6170
:101334003A69FB689A4227D1BB699B00FB600F2284
:10134400FB6802FA03F3BB60BB68DB437A691340B2
:101354007B61FA69FB6802FA03F37A6913437B61E0
:101364003B68DB78282B05D1BB69083301229A40FE
:101374007B685A613B68DB78482B05D1BB6908332D
:1013840001229A407B681A61BB690133BB61BB6966
:10139400072BC1D97B687A695A6000BF2437BD46E0
:1013A40080BC704780B485B000AF78600B467B800A
:1013B4000023FB737B689A687B881340002B02D060
:1013C4000123FB7301E00023FB73FB7B18461437F6
:1013D400BD4680BC704780B483B000AF78600B46D4
:1013E4007B807A887B681A6100BF0C37BD4680BC5D
:1013F400704780B483B000AF78600B467B807A88F6
:101404007B685A6100BF0C37BD4680BC7047000042
:1014140080B487B000AF78600B46FB7000233B615B
:101424000023FB6000237B610023BB607B68002BEF
:1014340003DA2E4BDB697B6102E02C4B5B687B613A
:101444007B681B0C03F00F03BB607B689BB23B61A2
:101454007B6803F44013B3F5401F0AD17B6923F082
:1014640070637B61214B5B68204A23F07063536097
:1014740021E07B6803F48013002B0ED00322BB68A9
:1014840002FA03F3FB60FB68DB437A6913407B6178
:101494007B6943F070637B610DE07B685B0D1B012E
:1014A4003A6902FA03F3DB437A6913407B617B698F
:1014B40043F070637B61FB78002B08D07B685B0D85
:1014C4001B013A6902FA03F37A6913437B617B686F
:1014D400002B03DA054A7B69D36102E0034A7B6986
:1014E400536000BF1C37BD4680BC704700000140FC
:1014F40080B485B000AF03460A46FB711346BB7146
:101504000023FB60BB7903F003039B000F2202FA64
:1015140003F3FB60154ABB799B08DBB2023352F834
:101524002320FB68DB431148B9798908C9B21A4002
:101534008B1C40F823200D4ABB799B08DBB2023395
:1015440052F82320F979BB7903F003039B0001FAD5
:1015540003F30648B9798908C9B21A438B1C40F8C9
:10156400232000BF1437BD4680BC704700000140F3
:1015740080B500AF00F0E8FF164801F055F800F020
:101584004FFE00F079FF0020FEF7BEFF0346B3F1E3
:10159400FF3F03D1104801F047F8FEE70F48FFF77B
:1015A4001FF90F48FFF705F90E48FFF7A3FD0022C6
:1015B4000D490C20FFF77EFA002200210C20FFF7D2
:1015C40097FA0020FFF70AFD084800F06FFCFFF7C8
:1015D40053FDFEE798290008A829000834040020D8
:1015E4004004002080E7010048040020C0D401002A
:1015F40080B400AF184B1B68174A43F00103136013
:10160400154B5A681449154B13404B60124B1B6819
:10161400114A23F0847323F4803313600E4B1B6848
:101624000D4A23F4802313600B4B5B680A4A23F4AE
:10163400FE035360084B1B68074A23F0A053136052
:10164400054B4FF47F029A60034B0022DA6200BF1D
:10165400BD4680BC704700BF001002400000FFF090
:1016640080B483B000AF7860134B1B68124A23F434
:1016740080331360104B1B680F4A23F480231360DC
:101684007B68B3F5803F04D07B68B3F5802F07D027
:101694000DE0094B1B68084A43F48033136006E0ED
:1016A400054B1B68044A43F4A023136000BF00BF2A
:1016B4000C37BD4680BC70470010024080B582B034
:1016C40000AF00233B600023FB710023BB7131207A
:1016D40000F0AEFA0346BB713B6801333B603B68E4
:1016E400B3F5A06F02D0BB79002BF0D0312000F00D
:1016F4009FFA0346002B02D00123FB7101E0002373
:10170400FB71FB7918460837BD4680BD80B485B0AF
:1017140000AF786039600023FB600A4B5B68FB60B4
:10172400FB6823F47413FB607A683B681343FA681C
:101734001343FB60034AFB68536000BF1437BD4684
:1017440080BC70470010024080B483B000AF0346F1
:10175400FB71044AFB79136000BF0C37BD4680BCA3
:10176400704700BF6000424280B485B000AF78602B
:1017740039600023FB600B4BDB6AFB60FB6823F4DE
:10178400803323F00F03FB607A683B681343FA68E5
:101794001343FB60034AFB68D36200BF1437BD46A2
:1017A40080BC70470010024080B485B000AF786000
:1017B4000023FB60094BDB6AFB60FB6823F0F0034A
:1017C400FB60FA687B681343FB60044AFB68D362DE
:1017D40000BF1437BD4680BC704700BF00100240F4
:1017E40080B485B000AF78600023FB60094BDB6AEE
:1017F400FB60FB6823F47063FB60FA687B68134347
:10180400FB60044AFB68D36200BF1437BD4680BC4A
:10181400704700BF0010024080B483B000AF03469D
:10182400FB71044AFB79136000BF0C37BD4680BCD2
:10183400704700BF6800424280B485B000AF786052
:101844000023FB60094B5B68FB60FB6823F0030328
:10185400FB60FA687B681343FB60044AFB685360CF
:1018640000BF1437BD4680BC704700BF0010024063
:1018740080B400AF044B5B68DBB203F00C03DBB253
:101884001846BD4680BC70470010024080B485B045
:1018940000AF78600023FB60094B5B68FB60FB686A
:1018A40023F0F003FB60FA687B681343FB60044A8F
:1018B400FB68536000BF1437BD4680BC704700BF4F
:1018C4000010024080B485B000AF78600023FB6054
:1018D400094B5B68FB60FB6823F4E063FB60FA6818
:1018E4007B681343FB60044AFB68536000BF1437F2
:1018F400BD4680BC704700BF0010024080B485B074
:1019040000AF78600023FB60094B5B68FB60FB68F9
:1019140023F46053FB607B68DB00FA681343FB60CD
:10192400034AFB68536000BF1437BD4680BC704750
:101934000010024080B485B000AF78600023FB60E3
:10194400094B5B68FB60FB6823F44043FB60FA6867
:101954007B681343FB60044AFB68536000BF143781
:10196400BD4680BC704700BF0010024080B48BB0FD
:1019740000AF786000233B6200237B620023FB619D
:101984000023BB6100237B6100233B610023FB60D8
:101994000023BB60644B5B6803F00C033B623B6A4F
:1019A400082B11D03B6A082B64D83B6A002B03D068
:1019B4003B6A042B04D05DE07B685C4A1A605DE0FE
:1019C4007B685B4A1A6059E0574B5B6803F47013F9
:1019D4007B62554B5B6803F48033FB617B6A9B0C31
:1019E4007B627B6A0D2B03D07B6A02337B6201E04E
:1019F40006237B62FB69002B06D17B6A4D4A02FBFE
:101A040003F27B681A6039E0474BDB6A03F48033E6
:101A14007B61454BDB6A03F00F0301333B617B6958
:101A2400002B09D1424A3B69B2FBF3F37A6A02FB09
:101A340003F27B681A6021E03B4BDB6A1B0903F06D
:101A44000F030133FB60384BDB6A1B0A03F00F03FF
:101A54000233BB60364AFB68B2FBF3F3BA6802FB9D
:101A640003F23B69B2FBF3F37A6A02FB03F27B688D
:101A74001A6003E07B682D4A1A6000BF2A4B5B683A
:101A840003F0F0033B623B6A1B093B622A4A3B6A50
:101A940013441B78DBB2BB617B681A68BB69DA400C
:101AA4007B685A60204B5B6803F4E0633B623B6AEB
:101AB4001B0A3B62204A3B6A13441B78DBB2BB61BE
:101AC4007B685A68BB69DA407B689A60164B5B682E
:101AD40003F460533B623B6ADB0A3B62164A3B6A8F
:101AE40013441B78DBB2BB617B685A68BB69DA407C
:101AF4007B68DA600C4B5B6803F440433B623B6AEF
:101B04009B0B3B620D4A3B6A13441B78DBB2BB61FF
:101B14007B68DA68BB69B2FBF3F27B681A6100BFC9
:101B24002C37BD4680BC70470010024000127A007A
:101B3400001BB70000093D00540400206404002089
:101B440080B483B000AF78600B46FB70FB78002B49
:101B540006D0094B9A6908497B6813438B6106E0F8
:101B6400054B9A697B68DB43034913408B6100BFD3
:101B74000C37BD4680BC70470010024080B483B06F
:101B840000AF78600B46FB70FB78002B06D0094B46
:101B9400DA6908497B681343CB6106E0054BDA69CF
:101BA4007B68DB4303491340CB6100BF0C37BD4660
:101BB40080BC70470010024080B483B000AF7860EE
:101BC4000B46FB70FB78002B06D0094BDA680849FA
:101BD4007B681343CB6006E0054BDA687B68DB4324
:101BE40003491340CB6000BF0C37BD4680BC70472F
:101BF4000010024080B483B000AF78600B46FB70E5
:101C0400FB78002B06D0094B1A6908497B681343FB
:101C14000B6106E0054B1A697B68DB4303491340FB
:101C24000B6100BF0C37BD4680BC704700100240FA
:101C340080B487B000AF0346FB710023FB60002330
:101C44007B610023FB74FB795B09DBB2FB60FB68FF
:101C5400012B03D1124B1B687B6109E0FB68022B4B
:101C640003D10F4B1B6A7B6102E00D4B5B6A7B6106
:101C7400FB7903F01F03FB607A69FB6822FA03F324
:101C840003F00103002B02D00123FB7401E00023C5
:101C9400FB74FB7C18461C37BD4680BC704700BFF4
:101CA40000100240002103E00B4B5B584350043109
:101CB4000A480B4B42189A42F6D30A4A02E0002320
:101CC40042F8043B084B9A42F9D3FEF73DFBFEF77A
:101CD400A7FAFFF74DFC70479C2A0008000000207B
:101CE4006804002068040020E8040020FEE70000E7
:101CF40080B485B000AF78600023FB60344BFB6098
:101D04007B689B79002B4FD0314B1A687B681B682A
:101D1400DB432F4913400B602D4B5A687B681B68CB
:101D2400DB432B4913404B607B681B791A46FB68E5
:101D34001344FB60FB6819687B681A68FB680A43F4
:101D44001A60234B9A687B681B68DB432049134065
:101D54008B601F4BDA687B681B68DB431C491340AC
:101D6400CB607B685B79102B0ED1194B9A687B682A
:101D74001B68174913438B60154BDA687B681B6833
:101D840013491343CB601DE0114BFB607B685B7907
:101D94001A46FB681344FB60FB6819687B681A6881
:101DA400FB680A431A600DE07B681B791A46FB68DE
:101DB4001344FB60FB6819687B681B68DA43FB68A3
:101DC4000A401A6000BF1437BD4680BC704700BF8C
:101DD4000004014080B483B000AF7860034A7B689C
:101DE400536100BF0C37BD4680BC704700040140FE
:101DF40080B483B000AF0346FB71FB7903F01F038B
:101E0400012202FA03F1054A97F907305B0942F807
:101E1400231000BF0C37BD4680BC704700E100E0D2
:101E240080B483B000AF0346FB71FB7903F01F035A
:101E3400012202FA03F1064A97F907305B092033BD
:101E440042F8231000BF0C37BD4680BC704700BF6A
:101E540000E100E080B582B000AF172000F03CF94B
:101E640003467B607B68002B02D01720FFF7D8FF66
:101E74007B6818460837BD4680BD80B582B000AF88
:101E840078607B68002B02D01720FFF7B1FF00BFFA
:101E94000837BD4680BD80B582B000AF78607868F1
:101EA40000F004F800BF0837BD4680BD80B584B09B
:101EB40000AF786000F0B6F802467B681344FB601C
:101EC40000BF00F0AFF80246FB68D31A002BF8DD20
:101ED40000BF00BF1037BD4680BD000080B485B090
:101EE40000AF78600023FB60094B1B68FB60FB6854
:101EF40003F03803FB60FA687B681343FB60044A11
:101F0400FB68136000BF1437BD4680BC704700BF38
:101F14000020024080B483B000AF7860084B1B6897
:101F2400074A23F010031360054B1A6804497B68C1
:101F340013430B6000BF0C37BD4680BC704700BF25
:101F44000020024080B400AF044B1B680133034AF5
:101F5400136000BFBD4680BC704700BFE40400208E
:101F640080B500AF074B1B68984720210648FFF750
:101F740019FA0346012BF5D02020FFF72BFF00BFF1
:101F840080BD00BFBC040020000C014080B483B0BD
:101F940000AF03463960FB7197F90730002B0BDA69
:101FA4003B68DAB20C49FB7903F00F03043B1201DE
:101FB400D2B20B441A7609E03B68DAB2074997F9C2
:101FC40007301201D2B20B4483F8002300BF0C3750
:101FD400BD4680BC704700BF00ED00E000E100E0BA
:101FE40080B582B000AF78607B68B3F1807F01D3A5
:101FF400012311E07B6823F07F43094A013B5360CE
:102004000F214FF0FF30FFF7C1FF054B00229A600C
:10201400034B07221A60002318460837BD4680BDCB
:1020240010E000E080B400AF024B1B681846BD46C8
:1020340080BC7047E404002080B500AF0A4B1B68E5
:102044000A4AA2FB03239B091846FFF7C9FF03466C
:10205400002B00D0FEE705214FF0FF30FFF796FF7D
:102064000023184680BD00BF2C040020D34D62100D
:1020740080B584B000AF2023BB812823FB7307F114
:102084000C0319461348FFF7D1F805210120FFF787
:102094002FFA20237B6000233B7208237B720123E9
:1020A400BB723B1D1846FFF723FE4FF4407000F04F
:1020B400DFFA17233B700F237B700023BB700123CF
:1020C400FB703B46184600F0E5FA0023184610372B
:1020D400BD4680BD000C014080B485B000AF78607F
:1020E4000023FB730023BB60094B1B687A68134011
:1020F400BB60BB68002B02D00123FB7301E000230B
:10210400FB73FB7B18461437BD4680BC704700BF89
:102114000004014080B586B000AFFFF769FA4FF4C0
:102124008030FFF79DFAFFF7C9FA0346FB75FB7D84
:10213400002B42D01020FFF7EDFE0220FFF7CEFE69
:102144000020FFF7A3FB0020FFF7D8FB4FF48060CB
:10215400FFF7B8FB4FF40040FFF7ECFB3020FFF72C
:1021640023FB4FF4C060FFF73BFB0120FFF754FB58
:1021740000BF3B20FFF75CFD0346002BF9D0022192
:102184004FF48030FFF7F0FA4FF4E0114FF4803051
:10219400FFF7BCFA0120FFF7D7FA00BF3920FFF799
:1021A40047FD0346002BF9D00220FFF745FB00BF93
:1021B400FFF75EFB0346082BFAD13B461846FFF7B0
:1021C400D5FB01214FF48050FFF7BAFC01214FF4F5
:1021D4008040FFF7D3FC01217D20FFF7B1FC0023F1
:1021E40018461837BD4680BD80B485B000AF03469D
:1021F400FB800023FB81094B1B88FB81FB8923F0B7
:102204003803FB81FA89FB881343FB81034AFB896A
:10221400138000BF1437BD4680BC704700300140B6
:1022240080B500AF2020FFF7DFFF00BF80BD0000B6
:1022340080B586B000AF264800F08EFA0023BB803C
:102244004FF48273FB8000233B8100237B810023B6
:10225400BB814FF40073FB8110233B8200237B82FC
:102264000723BB823B1D1946194800F0AFFAA0238F
:102274003B801823FB700323BB703B46194615486B
:10228400FEF7D4FF40233B804823FB703B461946AE
:102294001048FEF7CBFF10233B801023FB70032371
:1022A400BB703B4619460B48FEF7C0FF00210848A7
:1022B40000F008FB0121064800F0CBFA1021054884
:1022C400FFF789F8002318461837BD4680BD00BFC4
:1022D400003001400008014080B586B000AF3448AA
:1022E40000F03AFA0023BB804FF48273FB80002392
:1022F4003B8102237B810123BB814FF40073FB816B
:1023040030233B8200237B820723BB823B1D19467B
:10231400274800F05BFA4FF420433B801823FB70FE
:102324000323BB703B4619462248FEF77FFF4FF458
:1023340080433B804823FB703B4619461D48FEF70B
:1023440075FF4FF480533B801023FB700323BB7055
:102354003B4619461748FEF769FF0021144800F070
:10236400B1FA0121124800F074FA4FF48051114877
:10237400FFF731F84FF400633B801023FB70032315
:10238400BB703B4619460B48FEF750FF4FF4806381
:102394003B801023FB700323BB703B461946054862
:1023A400FEF744FF002318461837BD4680BD00BF22
:1023B40000380040000C014080B582B000AF01211C
:1023C4007D20FFF7BDFB4FF6FF73BB800023FB713D
:1023D4003B1D19462348FEF729FF3B1D1946224899
:1023E400FEF724FF3B1D19462048FEF71FFF3B1D47
:1023F40019461F48FEF71AFF3B1D19461D48FEF7F4
:1024040015FF0423BB800423FB713B1D19461648AA
:10241400FEF70CFF3F23BB800423FB713B1D1946D1
:102424001248FEF703FF3F23BB800423FB713B1DCF
:1024340019460E48FEF7FAFE4FF47073BB80102362
:10244400FB710323BB713B1D19460848FEF7EEFEE2
:1024540000210120FEF7DCFF002318460837BD46A3
:1024640080BD00BF00080140000C01400010014085
:10247400001401400018014080B582B000AF012370
:10248400BB801023FB710323BB713B1D19460C4811
:10249400FEF7CCFE01210A48FEF7ABFF0123BB8007
:1024A4000023FB710323BB713B1D19460448FEF74F
:1024B400BDFE0220FFF7FAFC00BF0837BD4680BD11
:1024C4000008014080B584B000AF124A3B1D07CA22
:1024D40003C31A700023FB703B1D1A460021092018
:1024E40000F042F80A20FFF7E1FC0223FB70FB1C1A
:1024F4001A460021012000F037F80123FB70FB1C71
:102504001A460021012000F02FF800BF1037BD4605
:1025140080BD00BFB429000880B500AFFFF788FE76
:10252400FFF7DAFE4FF400610648FEF762FF4FF44E
:1025340080610448FEF75DFF0A20FFF7B7FC00BF87
:1025440080BD00BF000C014080B500AFFFF7E2FD85
:10255400FFF732FFFFF78CFDFFF76EFDFFF7DCFF9F
:10256400FFF7B0FF00BF80BD80B586B000AFF86054
:102574000B467A60FB7200237B6100233B61FB7A8C
:10258400002B05D04FF400612548FEF724FF0FE02F
:10259400FB68012B07D17B681B7803F00303002B36
:1025A40001D001233B614FF400611D48FEF721FF78
:1025B4004FF480511A48FEF71CFF00237B6116E09C
:1025C4007B697A6813441B789BB21946154800F05E
:1025D4005FF900BF0121134800F093F90346002B73
:1025E400F8D0104800F062F97B6901337B617B69A4
:1025F400FA689A42E4D84FF400610948FEF7F9FEFC
:102604004FF480510648FEF7E6FE3B69002B02D0EA
:102614000220FFF74BFC00BF1837BD4680BD00BF4A
:10262400000C01400038004080B584B000AF7860F1
:102634000223FB7307F10F031A4600210120FFF761
:1026440093FF0123FB7307F10F031A4600210120B6
:10265400FFF78AFF786800F06FF903467A68012172
:102664001846FFF781FF00BF1037BD4680BD00004C
:1026740080B483B000AF7860054A7B6843F0BF63E1
:1026840043F40033D36000BF0C37BD4680BC7047B1
:1026940000ED00E080B487B000AF786000237B6178
:1026A40000233B610F23FB607B68DB78002B3AD06F
:1026B400274BDB68DB431B0A03F007037B617B6961
:1026C400C3F104033B61FA687B6922FA03F3FB60FC
:1026D4007B685B781A463B6902FA03F37B617B688B
:1026E4009B781A46FB6813407A6913437B617B69C4
:1026F4001B017B61174A7B681B787969C9B2134453
:102704000A4683F800237B681B7803F01F031149F2
:102714007A6812785209D2B21046012202FA03F3FF
:1027240041F820300FE07B681B7803F01F03094950
:102734007A6812785209D2B2104601229A4000F106
:10274400200341F8232000BF1C37BD4680BC7047DE
:1027540000ED00E000E100E080B582B000AF7860F9
:102764007B68174A93420AD101214FF48050FFF746
:1027740023FA00214FF48050FFF71EFA1CE07B6817
:10278400104A93420AD101214FF48040FFF732FAF4
:1027940000214FF48040FFF72DFA0DE07B680A4AD0
:1027A400934209D101214FF40040FFF723FA00219D
:1027B4004FF40040FFF71EFA00BF0837BD4680BD46
:1027C4000030014000380040003C004080B485B037
:1027D40000AF786039600023FB817B681B88FB8134
:1027E400FB8903F44153FB813B681A883B685B888F
:1027F40013439AB23B689B8813439AB23B68DB88C5
:1028040013439AB23B681B8913439AB23B685B89B2
:1028140013439AB23B689B8913439AB23B68DB89A2
:1028240013439AB2FB891343FB817B68FA891A80AC
:102834007B689B8B9BB223F400639AB27B689A8378
:102844003B681A8A7B681A8200BF1437BD4680BC75
:10285400704780B483B000AF78600B46FB70FB78A0
:10286400002B08D07B681B889BB243F040039AB2CC
:102874007B681A8007E07B681B889BB223F04003C7
:102884009AB27B681A8000BF0C37BD4680BC704783
:1028940080B483B000AF78600B467B807B687A8815
:1028A4009A8100BF0C37BD4680BC704780B483B0AA
:1028B40000AF78607B689B899BB218460C37BD4695
:1028C40080BC704780B483B000AF78600B46FB7067
:1028D400FB78002B08D07B689B889BB243F00403F1
:1028E4009AB27B689A8007E07B689B889BB223F04E
:1028F40004039AB27B689A8000BF0C37BD4680BC43
:10290400704780B485B000AF78600B467B800023AD
:10291400FB737B681B899AB27B8813409BB2002BA4
:1029240002D00123FB7301E00023FB73FB7B1846F9
:102934001437BD4680BC704720F0030110F003003B
:10294400C0F1000051F8043B00F1040C4FEACC0C38
:102954006FF000021CBF22FA0CF213434FF0010C7B
:102964004CEA0C2C4CEA0C4CA3EB0C0222EA0302BA
:1029740012EACC1204BF51F8043B0430F4D0C2F183
:10298400000102EA0102B2FA82F2C2F11F0200EB74
:10299400D2007047434F4E54204652414D45207655
:1029A400312E3200494E4954204641494C45440099
:1029B4003914556D78380C01060000000000002021
:1029C4000000010203040005405C0000A05C040058
:1029D400C06C0800805C0400E03F1E00E07D1E0027
:1029E40007040009080540080910400808054008C4
:1029F4001D0400081D0400081E265626BEBE000045
:102A0400D8BC000007A9022570889B8840100800E4
:102A14000A001600010006000100020087008D0074
:102A24003C001A3152001A339A001A351D011A3724
:102A34006B003B31BE003B335E013B3596023B37B6
:102A4400000098599859EA518E421E45142E008070
:102A5400EA51F4283233E03A703DE03AC235842B2F
:102A6400C2353233C235C235AE47E03A5038A230AF
:102A740050380000F8B500BFF8BC08BC9E4670474B
:0C2A8400F8B500BFF8BC08BC9E467047C7
:082A90006D02000809020008B4
:042A9800E50100084C
:102A9C0000000000EC02002054030020BC030020C6
:102AAC00000000000000000000000000000000001A
:102ABC00000000000000000000000000000000000A
:102ACC0000000000000000000000000000000000FA
:102ADC0000000000000000000000000000000000EA
:102AEC0000000000000000000000000000000000DA
:102AFC0000000000000000000000000000000000CA
:102B0C0000000000000000000000000000000000B9
:102B1C0000000000000000000000000000000000A9
:102B2C000000000000000000000000000000000099
:102B3C000000000000000000010000000000000088
:102B4C000E33CDAB34126DE6ECDE05000B0000004D
:102B5C000000000000000000000000000000000069
:102B6C000000000000000000000000000000000059
:102B7C000000000000000000000000000000000049
:102B8C000000000000000000000000000000000039
:102EBC000000000000000000C004002000A24A0432
:102ECC00840400200502140009090002000081009E
:102EDC00C000000085654525C50044454341574168
:102EEC005645000000000000010203040102030427
:082EFC0006070809020406089C
:0400000508001CA92A
:00000001FF
