:020000040800F2
:10000000A0380020450100084D0100084F010008FC
:1000100051010008530100085501000800000000CC
:100020000000000000000000000000005701000870
:1000300059010008000000005B0100089D2B00082A
:100040005F0100085F0100085F0100085F01000810
:100050005F0100085F0100085F0100085F01000800
:100060005F0100085F0100085F0100085F010008F0
:1000700059050008C10500085F0100085F0100087C
:100080005F0100085F0100085F0100085F010008D0
:10009000253300085F0100085F0100085F010008C8
:1000A0005F0100085F0100085F0100085F010008B0
:1000B0000D2C00085F0100085F0100085F010008C7
:1000C0005F0100085F0100085F0100085F01000890
:1000D0005F0100088D2D00085F0100085F01000826
:1000E0005F0100085F010008973000085F01000809
:1000F0005F0100085F0100085F0100085F01000860
:100100005F0100085F0100085F0100085F0100084F
:100110005F0100085F0100085F0100085F0100083F
:100120005F0100085F0100085F0100085F0100082F
:10013000DFF80CD000F040F80048004769440008A0
:10014000A03800200648804706480047FEE7FEE743
:10015000FEE7FEE7FEE7FEE7FEE7FEE7FEE7FEE777
:10016000AD2B00083101000840EA01039B0703D0D2
:1001700009E008C9121F08C0042AFAD203E011F8E6
:10018000013B00F8013B521EF9D2704730B50B46D7
:10019000014600202022012409E021FA02F59D42B7
:1001A00005D303FA02F5491B04FA02F52844151E8B
:1001B000A2F10102F1DC30BD064C074D06E0E0681B
:1001C00040F0010394E8070098471034AC42F6D39E
:1001D000FFF7B2FFE04C0008004D000870B58C1826
:1001E00010F8015B15F0070301D110F8013B2A114B
:1001F00006D110F8012B03E010F8016B01F8016B38
:100200005B1EF9D12B0705D40023521E0DD401F833
:10021000013BFAE710F8013BCB1A921C03E013F8FC
:10022000015B01F8015B521EF9D5A142D8D3002031
:1002300070BD0146CAB20B1243EA022070470000AB
:1002400008B50020009022E19748008800F00F00D8
:10025000964908700846007800287CD194480068C8
:10026000944908800846008800F0300092490880D0
:100270009048008800F440508E4908808C490968F5
:100280004BF6BF7201EA020080F4005080F02000BB
:1002900040F4004141F08001854A116082480088A5
:1002A00000F0100090BB1046006848F60F7108403F
:1002B0001146086001F040F87D4909684BF6BF72AD
:1002C00001EA02007B49098801F4805109B180F4F8
:1002D00080507849098801F4005109B180F4005038
:1002E0007549098801F0100109B180F010007249C8
:1002F000098801F0200109B180F0200081B241F4A9
:10030000004141F080016A4A116008BDFFE768487A
:10031000006880B20090BDF8000000F40060B0B347
:1003200063480068C0F30E0048F68F7108406049CA
:10033000086002F0E1F85E4909684BF6BF7201EA15
:1003400002005C49098801F4805109B180F48050B1
:100350005849098800E056E001F4005109B180F4E1
:1003600000505549098801F0100109B180F01000D2
:100370005149098801F0200109B180F0200081B2C3
:1003800041F4004141F08001494A1160BDE7FFE7B7
:10039000BDF8000000F40040002878D04448006810
:1003A000C0F30E0048F68F7108404149086001F023
:1003B0005FF93F4909684BF6BF7201EA02003D4907
:1003C000098801F4805109B180F4805039490988C5
:1003D00001F4005109B180F400503749098801F057
:1003E000100109B180F010003349098801F02001A3
:1003F00009B180F0200081B241F4004141F0800158
:100400002B4A116081E7294800782C4901EB8000D4
:10041000D0F8000C80B20090BDF8000000F400405D
:10042000C0B12248007801EB8000D0F8000CC0F386
:100430000E0048F68F7108401C4909781F4A02EBEC
:100440008101C1F8000C19490978491E1C4A52F86B
:1004500021008047BDF8000000F08000B8B11348CB
:100460000078164901EB8000D0F8000C48F60F71B7
:1004700008400E490978114A02EB8101C1F8000CCD
:100480000A490978491E0F4A52F821008047084856
:100490004430006880B20449088000F4004000281D
:1004A0007FF4D2AE00BF30E7E8000020D00100208A
:1004B000005C0040E4010020E60100200050004004
:1004C00010010020F40000200B4A02EB8001D1F85B
:1004D000001C01F4804171B102EB8001D1F8001CD5
:1004E00048F68F7211404CF280021143024B03EB2D
:1004F0008002C2F8001C7047005000400B4A02EB1B
:100500008001D1F8001C01F0400171B102EB8001C3
:10051000D1F8001C48F68F72114048F2C002114316
:10052000024B03EB8002C2F8001C704700500040F1
:10053000084A02EB8001D1F8001C48F68F62114096
:1005400048F280021143034B03EB8002C2F8001C07
:10055000704700000050004010B5002208211448E8
:1005600000F05CF900220221114800F057F94FF425
:10057000007000F059F84FF4006000F055F82020AA
:1005800000F036F9012809D110200A49086020201E
:1005900000F058F800200849086008E010200549DC
:1005A0000860802000F04EF801200449086010BD6A
:1005B0001C00024010080140840000208C00002034
:1005C00010B500220821144800F028F90022022169
:1005D000114800F023F9202000F026F8802000F0D8
:1005E00023F84FF4007000F0EDF8012809D1102035
:1005F0000A490860400100F025F800200849086019
:1006000008E0102005490860C00100F01BF8012037
:100610000449086010BD000030000240100801408D
:10062000880000209000002000F0805111B10349A3
:10063000086001E00249486070470000040402407D
:100640000000024000F0805111B10349086001E050
:100650000249486070470000040402400000024064
:1006600021B1026842F00102026004E002684FF624
:10067000FE731A400260704701684FF6FE72114027
:1006800001600021016041608160C1604B49884286
:1006900008D14A490839496841F00F01474A083AE8
:1006A00051608AE045491431884208D143490839EC
:1006B000496841F0F001414A083A51607DE03F4904
:1006C0002831884208D13D490839496841F47061B0
:1006D0003A4A083A516070E038493C31884208D1C2
:1006E00036490839496841F47041344A083A516042
:1006F00063E032495031884208D1304908394968AD
:1007000041F470212D4A083A516056E02B4964317A
:10071000884208D129490839496841F47001274ABB
:10072000083A516049E025497831884208D1234987
:100730000839496841F07061204A083A51603CE04C
:100740001F49884206D1011F096841F00F01021FAD
:10075000116032E01A491431884208D11849091F42
:10076000096841F0F001164A121F116025E0144992
:100770002831884208D11249091F096841F4706183
:100780000F4A121F116018E00D493C31884208D110
:100790000B49091F096841F47041094A121F116091
:1007A0000BE007495031884207D10549091F096804
:1007B00041F47021024A121F116070470800024084
:1007C0000804024001460020002201F0805313B1CA
:1007D000054B1A6801E0054B1A6802EA01030BB1E8
:1007E000012000E0002070470004024000000240A9
:1007F00001460020002201F0805313B1054B1A6816
:1008000001E0054B1A6802EA01030BB1012000E088
:100810000020704700040240000002401AB1036843
:100820000B43036002E003688B430360704710B51D
:100830000022026847F6F0739A430C6A8B682343E0
:100840000C6923434C6923438C692343CC692343BC
:100850004C6A23438C6A23431A430260CB6843608B
:100860000B6883604B68C36010BD41607047000037
:100870002DE9F0472848006800F110052E88264829
:100880000068077AD6B9042F18D1244800780128C7
:100890000FD100212248006880B2801C214A42F812
:1008A000101030202049088000BF00201B4908702C
:1008B00003E0072710201C49088027E0AC88A642E7
:1008C00001D8042000E002200746B44200D9344693
:1008D000A0B2A96888478046002000F003FD814649
:1008E000A2B24946404602F063FDA1B2002001F0E9
:1008F000F1FC2888001B288068882044688030200C
:100900000949088000020949088000BF02490968B6
:100910000F72BDE8F0870000D4010020CE01002056
:10092000505C004000600040E6010020E40100202F
:100930002DE9F0412848006800F110042688A068DD
:10094000C0B1BEB1A588B54200D93546A8B2A168EC
:10095000884707462088401B2080608828446080A4
:10096000002000F09DFC8046AAB24146384600F0C7
:10097000A7FE00BF208850B14FF4405017490880AF
:100980000021084601F0A6FC302015490880208887
:10099000A188884204DB03200F490968087218E027
:1009A0002088002804DD05200B490968087210E042
:1009B000208870B906200849096808720021094892
:1009C000006880B2801C084A42F8101030200449A8
:1009D0000880BDE8F0810000D4010020E40100207F
:1009E000E6010020505C0040006000402DE9F84F17
:1009F0009B48006845780027BA46062D1BD19848C9
:100A00000068007800F07F00002813D1944909683D
:100A10008878012803D193490968CF690AE0022840
:100A200003D1904909680F6A04E0032802D18D4977
:100A300009684F6A94E0002D64D1894800684088B5
:100A400000285FD186480068C08802285AD18448AF
:100A500000680079002855D181480068007800F0CE
:100A60007F0028B97E480068808808B97E4F77E00B
:100A70007B480068007800F07F00012810D1784999
:100A800009684879774909688A69002190470028F0
:100A900066D173480068807A002861D0724F5FE0A9
:100AA0006F480068007800F07F00022858D16C4839
:100AB0000068407900F00F0669480068407900F04E
:100AC000700967480068407900F0800038B16749D4
:100AD00001EB8600D0F8000C00F0300806E0634916
:100AE00001EB8600D0F8000C00F440586048007814
:100AF000B04235D9B9F1000F32D1B8F1000F2FD083
:100B0000594F2DE0082D07D155480068007800F0B6
:100B10007F0028BB574F23E00A2D21D150480068A1
:100B2000007800F07F0001281AD14D480068807AD3
:100B3000B0B14B480068408890B9494800680079D6
:100B400070B947480068C088012809D1444909683C
:100B50004879444909688A690021904700B9464F9D
:100B600057B13F480068A0F812A03D48006887616F
:100B70000020B84700240FE0394A12685078394AFB
:100B80001268116988470446032C05D109203449AD
:100B900009680872BDE8F88F31480068008A4FF68E
:100BA000FF71884204D109202D4909680872F1E7D4
:100BB000022C03D02A480068008A20B9082028495E
:100BC00009680872E6E726480068007800F08000AF
:100BD000E0B323480068C088009021480068008A7C
:100BE0000099884204D91E4900980968088223E0C8
:100BF0001B480068008A1A490968C98888421BDABC
:100C000017480068008A1749096891F82C10884233
:100C100003DA0020194908700EE011480068008AC4
:100C20001049096891F82C1090FBF1F201FB1200B9
:100C300010B90120114908700A48006890F82C107A
:100C4000074800688182FFF713FE07E0FFE70320F3
:100C500003490968087200030949088000BF99E741
:100C6000D4010020D801002099270008005000403E
:100C7000380100201D2700086D270008CE01002044
:100C8000E401002010B500240F480078012819D194
:100C900040210E4802F074FB84B2002C0FDD224686
:100CA000C0210A4802F084FB2146012001F012FB1A
:100CB000012001F03DFB00200549086002E0002012
:100CC0000149087010BD0000E0000020E02700206E
:100CD000E400002070B500241949032002F038FB1D
:100CE00085B20A2D27D116480078482823D1144808
:100CF000407849281FD11248807854281BD100BF62
:100D000006E00F48005D0F4921F81400601CC4B2D2
:100D10000A2CF6DB00F078FB00BF0B48006800F4FB
:100D2000E0600A490843001D07490860BFF34F8F80
:100D300000BF00BFFEE7032001F0A2FA70BD000073
:100D400020280020421D00200CED00E00000FA05E4
:100D5000014908607047000014040140014600206A
:100D60000022044B1B6803EA01020AB1012000E0E3
:100D70000020704700040140002123498279002AA5
:100D80003AD00A46126803689A430B461A600A1D55
:100D9000126803689A430B1D1A60027911440A68AD
:100DA00003681A430A60184A0832126803689A43B3
:100DB000154B08331A601A1D126803689A43124BC8
:100DC0000C331A604279102A0ED11A1F1268036878
:100DD0001A430D4B08331A601A1D126803681A4330
:100DE000094B0C331A600DE00749427911440A6837
:100DF00003681A430A6005E0027911440A6803682F
:100E00009A430A60704700000004014030B5044670
:100E100004254FF4302000F089F80546042D17D141
:100E20000C48006940F002000A4908610846446124
:100E3000006940F0400008614FF4302000F076F87F
:100E400005460448006941F6FD7108400149086102
:100E5000284630BD0020024004200B49C96801F03B
:100E6000010109B101200EE00749C96801F0040140
:100E700009B1022007E00449C96801F0100109B175
:100E8000032000E00420704700200240034800696E
:100E900040F08000014908617047000000200240D6
:100EA0000549096821F01001034A116011460968DB
:100EB00001431160704700000020024070B50446F5
:100EC0000D460426F00200F031F80646042E11D13A
:100ED0000948006940F00100074908612580F002D7
:100EE00000F024F806460448006941F6FE71084007
:100EF00001490861304670BD0020024001460020D3
:100F0000034A106800F03800084310607047000082
:100F10000020024002480349486003484860704787
:100F20002301674500200240AB89EFCD00B50246A2
:100F30000423FFF791FF034603E0FFF78DFF03460D
:100F4000521E012B01D1002AF7D102B90523184600
:100F500000BD000010B500240A223449344801F0D5
:100F60006BF83248008848285BD1304840884928CF
:100F700057D12E488088542853D101202D4908701C
:100F80002A4800894D2802D0532808D103E00020C8
:100F90002949087007E001202749087003E0002074
:100FA0002549087000BF00BF204840893038052817
:100FB00018D2DFE800F003070B0F130000201F49D1
:100FC000087013E001201D4908700FE002201B4942
:100FD00008700BE003201949087007E00420174946
:100FE000087003E000201549087000BF00BF062408
:100FF00014E00E4830F81400302804DB0B4830F8B9
:101000001400392803DD3020084921F8140007486E
:1010100010F81410A01F0A4A1154641C0A2CE8DBB3
:1010200002E000200349087010BD0000421D0020AE
:10103000002003089B0000209C0000209D00002051
:101040009E00002008B501210D2000F00FFC0121B9
:101050000D4800F0CBF84020ADF8000010208DF8CE
:10106000030003208DF802006946084800F032F8BA
:101070004FF48070ADF8000004208DF8030069463D
:10108000034800F027F808BD00023000000C0140C2
:101090000008014030B500228B071C0F0F2303FA14
:1010A00004F20B4B8C1053F824309343084C8D10F2
:1010B00044F8253023468C1053F824308C07240F35
:1010C00000FA04F42343024C8D1044F8253030BD5F
:1010D000080001402DE9F0410246002500260020CD
:1010E00000230024002791F803C00CF00F0591F8AD
:1010F00003C00CF0100CBCF1000F03D091F802C03B
:101100004CEA050591F800C0BCF1000F31D014681D
:1011100000202BE04FF0010C0CFA00F3B1F800C0F6
:101120000CEA03069E4220D183004FF00F0C0CFA0C
:1011300003F7BC4305FA03FC4CEA040491F803C02E
:10114000BCF1280F06D14FF0010C0CFA00FCC2F8DC
:1011500014C00AE091F803C0BCF1480F05D14FF06C
:10116000010C0CFA00FCC2F810C0401C0828D1D3B6
:101170001460B1F800C0BCF1FF0F34DD54680020EA
:101180002EE000F1080C4FF0010808FA0CF3B1F85A
:1011900000C00CEA03069E4221D183004FF00F0CE1
:1011A0000CFA03F7BC4305FA03FC4CEA040491F87B
:1011B00003C0BCF1280F05D100F1080C08FA0CF8A7
:1011C000C2F8148091F803C0BCF1480F07D100F1B8
:1011D000080C4FF0010808FA0CF8C2F81080401C07
:1011E0000828CED35460BDE8F0810000F0B50A466F
:1011F000002300240021002500F00046B6F1004F36
:1012000002D11D4EF16901E01B4E7168C0F3034528
:1012100083B200F44016B6F5401F08D121F070618A
:10122000154E766826F07066134F7E6012E000F46B
:101230008016B6F5801F06D1032606FA05F4A143F1
:1012400041F0706106E0460D360103FA06F6B1433F
:1012500041F0706122B1460D360103FA06F63143C2
:1012600000F00046B6F1004F02D1034EF16101E0FB
:10127000014E7160F0BD00000000014002460020F8
:10128000D3680B400BB1012000E0002070474161A2
:101290007047016170470AB1016100E04161704728
:1012A00001460548006880B200EBC100001D034AFA
:1012B00032F8100080B27047505C0040006000407F
:1012C00001460648006880B200EBC100801D044A58
:1012D00032F81000C0F3090070470000505C004075
:1012E0000060004001460548006880B200EBC10084
:1012F000034A32F8100080B270470000505C004092
:101300000060004070B50A480468001D0568001DB3
:101310000668344454B108220649204600F044F8D7
:10132000042204491031284600F03EF870BD000048
:10133000E8F7FF1FBA00002010B518480068047ACB
:10134000022C01D0042C05D1FFF792FA1348006853
:10135000047A1CE0062C19D1104800684078052852
:101360000ED10E480068007800F07F0040B90B49AC
:101370000968C87800F004FF09490968086A8047CD
:101380000849096888688047082400E00824034960
:1013900009680C7200F0A8F910BD0000D40100200B
:1013A000E0010020D801002030B50B46002100BF2D
:1013B00016E00A24B4EB107F05D9302404EB107436
:1013C00003F8114005E0412404EB10740A3C03F8D3
:1013D0001140000100254C00641C1D554C1CE1B25D
:1013E0009142E6DB30BD00000548817A19B1052144
:1013F000044A116002E00121024A116070470000B6
:1014000080280020C001002010B50A2202490348AC
:1014100000F026FE10BD0000421D00200020030841
:10142000704700001FB52020ADF80C0028208DF873
:101430000F0003A91448FFF74DFE05210120FFF717
:1014400029FE2020019000208DF8080008208DF84A
:10145000090001208DF80A0001A8FFF78DFC4FF468
:10146000A06000F04BF817208DF8000002208DF8E6
:10147000010001208DF802008DF80300684600F09D
:1014800005F8002004B010BD000C014070B500212B
:1014900000230F22C47804B3154C246804F4E064DC
:1014A000C4F5E064210AC1F10403CA40447804FA97
:1014B00003F184781440214309010E4C0678A155AC
:1014C000047804F01F050124AC4005786D11AD00CF
:1014D00005F1E025C5F8004109E0047804F01F0596
:1014E0000124AC40044D0678761145F8264070BDC5
:1014F0000CED00E000E400E080E100E0024901437F
:10150000024A1160704700000000FA050CED00E08F
:1015100010B5002807DA8A07140E054A00F00F03F9
:101520001B1FD45403E08A07130E024A135410BD44
:1015300018ED00E000E400E070B5022647480068BE
:10154000447846480068007800F07F00002844D1C5
:10155000092C03D101F0A0F906465FE0052C14D157
:101560003E480068C0787F280BDC3C4800688078E3
:1015700038B93A480068808818B938480068807AD5
:1015800008B1082565E0002648E0032C0ED1334859
:101590000068C078012807D130480068808818B9F1
:1015A00001F09EF9064639E0022637E0012C35D1DC
:1015B0002A480068C07801280DD128480068808832
:1015C00048B926480068407A00F0200018B100F0C1
:1015D000EFFF064622E0022620E02048006800785F
:1015E00000F07F00012805D10B2C17D101F0F4F990
:1015F000064613E019480068007800F07F000228D2
:101600000BD1012C03D100F0D3FF064606E0032CDA
:1016100004D101F079F9064600E002264EB1E0B2AD
:101620000F4A1268516988470646032E01D10925E1
:101630000FE00EB108250CE00625002109480068DE
:1016400080B2801C084A42F81010302007490880F8
:1016500000BF024909680D7270BD0000D40100206E
:10166000D8010020505C004000600040E6010020EE
:1016700010B511480068047A022C01D0042C01D165
:10168000082412E0032C01D0052C05D1FFF750F9F6
:1016900009480068047A08E0072C05D10749096861
:1016A000C8688047082400E00824034909680C72D0
:1016B00000F01AF810BD0000D4010020D80100206D
:1016C000F0B5561C7510074E06EB41042B4605E09D
:1016D00034F8047B20F8017B401C5B1E002BF7D103
:1016E000F0BD00000060004010B50D4890F82C10CF
:1016F000002000F07FFD0B480068007A082805D123
:1017000040020949088010200849088005480068FF
:10171000007A092801D1012010BD0020FCE700005B
:101720003C010020D4010020E4010020E60100205B
:1017300010B5012001F0B6FC01240B480460002024
:101740000A49088008460088074908600020091DEA
:1017500008604FF4E05005490880084600880249B7
:101760000860002010BD0000405C0040DE01002049
:1017700003461A60D960596099600020704770B5BF
:1017800003461446002200209A6800BF11E0DD687D
:101790001E682E44551C2A46AE4200D8DA685D68A1
:1017A000954200D107E011F8015B9E6835709A60A0
:1017B000401CA042EBD300BF70BDF0B50346002033
:1017C0000EE05C68651C5D6027780546401C4F553F
:1017D000DC681D682C445D68AC4201D8DC685C6044
:1017E0005C689D68AC4204D0904202D21C6884427E
:1017F000E7D8F0BD01460020034A506820F440407D
:1018000008435060704700000010024029B1064AAA
:1018100052690243044B5A6104E0034A526982430D
:10182000014B5A61704700000010024029B1064A7E
:10183000D2690243044BDA6104E0034AD26982436D
:10184000014BDA61704700000010024029B1064ADE
:1018500012690243044B1A6104E0034A126982438D
:10186000014B1A61704700000010024029B1064A7E
:1018700092690243044B9A6104E0034A92698243ED
:10188000014B9A61704700000010024029B1064ADE
:10189000D2680243044BDA6004E0034AD268824310
:1018A000014BDA60704700000010024010B586B0AE
:1018B00000F042F84FF4803000F002F900F064F9D3
:1018C000044654B31020FFF7EBFA0220FFF716FB93
:1018D000002000F0E9F8002000F024F94FF48060C7
:1018E00000F014F94FF40040FFF784FF4FF4E011CB
:1018F0004FF4803000F028F9012000F01FF900BFFC
:10190000392000F0ABF80028FAD0022000F02AF9C4
:1019100000BF00F0C1F80828FBD101A800F032F8A0
:1019200001210803FFF7A2FF01210D20FFF79EFF11
:10193000002006B010BD00000F48006840F0010014
:101940000D490860084640680C4908400A4948604B
:10195000084600680A4908400749086008460068C8
:1019600020F4802008600846406820F4FE004860AB
:101970004FF41F0088607047001002400000FFF81D
:10198000FFFFF6FE30B500210022002400232D4D7C
:101990006D6805F00C0121B1042905D0082923D177
:1019A00005E0294D056022E0284D05601FE0254D2A
:1019B0006D6805F47012234D6D6805F480340225BE
:1019C00005EB92421CB9224D554305600BE01D4DBD
:1019D0006D6805F400351DB11B4D5543056002E0EF
:1019E0001A4D5543056002E0174D056000BF00BF6A
:1019F000144D6D6805F0F0010909164D6B5C056822
:101A0000DD4045600F4D6D6805F4E061090A114D38
:101A10006B5C4568DD4085600A4D6D6805F460517A
:101A2000C90A0C4D6B5C4568DD40C560054D6D68AD
:101A300005F44041890B084D6B5CC568B5FBF3F5B7
:101A4000056130BD0010024000127A000024F4004D
:101A500000093D005C0000206C00002010B501462C
:101A60000022002300204A11012A02D1094C2368D8
:101A700006E0022A02D1074C236A01E0054C636AA2
:101A800001F01F02012494401C400CB1012000E031
:101A9000002010BD001002400248406800F00C0019
:101AA000704700000010024001460020034A5068C1
:101AB00020F0F00008435060704700000010024022
:101AC0001149096821F480310F4A116011460968F3
:101AD00021F480211160B0F5803F03D0B0F5802F54
:101AE0000ED106E00849096841F48031064A1160C8
:101AF00007E00549096841F4A021034A116000E0AC
:101B000000BF00BF704700000010024001460020E7
:101B1000034A506820F4E0600843506070470000BA
:101B20000010024001460020034A506820F4605033
:101B300040EAC10050607047001002400149086649
:101B4000704700000000424202460020044B5868E3
:101B500020F47C1042EA01031843014B586070479F
:101B60000010024001460020034A506820F00300A4
:101B700008435060704700000010024001490860AF
:101B800070470000D800424238B500200090002481
:101B9000002500BF3120FFF761FF05460098401C7B
:101BA00000900098B0F5A06F01D0002DF2D0312048
:101BB000FFF754FF08B1012400E00024204638BD9F
:101BC00070B50546072D01D02E4805702D480078C8
:101BD00008284ED2DFE800F004111A202B384E4FAF
:101BE0002948006828B900F053F8062025490870F4
:101BF00002E005202349087041E000F049F8042084
:101C00002049087001202049086038E002201D4961
:101C100048700320087032E01A484078401E194985
:101C200048700846407808B90420087027E0174833
:101C3000006884B244F0100414480460052011497F
:101C400008700A2048701AE00E484078401E0D497E
:101C500048700846407858B90C48006884B224F0AF
:101C600010040A4804600620087000200649086035
:101C700005E000BF00BF06200249087000BF00BF9A
:101C800070BD0000C5010020C8010020405C00407C
:101C900010B50748006884B224F0040404480460C6
:101CA000FFF7A2FB4FF43F400149086010BD000060
:101CB000405C004010B5002413480068052822D17C
:101CC00012480078F8B912490868411C104A11609E
:101CD000052818D100201146086040210D4801F068
:101CE0004FFB84B2002C0EDD2246C021094801F0D2
:101CF0005FFB2146012000F0EDFA012000F018FB07
:101D000001200249087010BDC0010020E000002041
:101D1000E4000020E027002070B505460C460121B4
:101D20000846FFF773FD1B48FEF7A6FC1A481B493F
:101D3000086008464560002088600846C4600020AE
:101D400008618020486100208861C86108624FF402
:101D500040504862002088620E48FEF768FD00226D
:101D600002210C48FEF75AFD002208210948FEF71F
:101D700055FD4FF4A060FFF7C1FB0C200849087027
:101D800001204870032088700120C8700846FFF7C2
:101D90007DFB70BD1C0002400C300140841D002002
:101DA000A600002070B504460D4600210748FEF746
:101DB00057FC06481C388462A9B20448FEF755FD5A
:101DC00001210248FEF74CFC70BD00001C000240DF
:101DD00070B504460D4600210748FEF741FC064851
:101DE0003038C463A9B20448FEF73FFD0121024820
:101DF000FEF736FC70BD00003000024070B50546AD
:101E00000C4601210846FFF701FD1B48FEF734FC94
:101E10001A481B490860084645601020886008463B
:101E2000C460002008618020486100208861C8618A
:101E300008624FF440504862002088620E48FEF766
:101E4000F6FC002202210C48FEF7E8FC00220821E3
:101E50000948FEF7E3FC4FF4A060FFF74FFB0D20AD
:101E60000849087002204870002088700120C8705E
:101E70000846FFF70BFB70BD300002400C300140FC
:101E8000581D0020A200002001460020044A1088AE
:101E90004FF6C77210400843014A10807047000097
:101EA0000030014021B1028842F04002028004E08B
:101EB00002884FF6BF731A400280704700B587B0A2
:101EC00001210803FFF7D2FC294800F05FF8002049
:101ED000ADF808004FF48270ADF80A000020ADF8AC
:101EE0000C00ADF80E00ADF810004FF40070ADF826
:101EF00012001020ADF814000020ADF816000720E5
:101F0000ADF8180002A91A4800F06CF8A020ADF84E
:101F1000040018208DF8070003208DF8060001A9A1
:101F20001448FFF7D7F84020ADF8040048208DF89A
:101F3000070001A90F48FFF7CDF81020ADF8040005
:101F40008DF8070003208DF8060001A90948FFF766
:101F5000C1F80021064800F063F801210448FFF7AA
:101F6000A1FF10210348FFF794F9002007B000BD3E
:101F700000300140000801401AB183880B43838080
:101F800002E083888B4383807047000010B50446CD
:101F90001148844208D101218014FFF777FC002109
:101FA000A014FFF773FC16E00C48844208D101210D
:101FB0000014FFF74BFC00212014FFF747FC0AE058
:101FC0000748844207D10121C013FFF73FFC0021DD
:101FD000E013FFF73BFC10BD00300140003800402B
:101FE000003C004010B50022028802F441520B88E8
:101FF0004C8823438C882343CC8823430C89234378
:102000004C8923438C892343CC8923431A43028080
:10201000838B4FF2FF74234083830B8A038210BDAE
:1020200021B1828842F00402828004E082884FF667
:10203000FB731A408280704730B503460C46154644
:10204000002207E0184600F008F824F812009B1C54
:10205000501C82B2AA42F5DB30BD014608887047A9
:102060002DE9F05F80468A461746B8F1006F02D32B
:102070003348804501D3BDE8F09FFEF74BFFA8F140
:10208000006B4FEA9B25CBF34809C9F50074A742C2
:1020900000DC3C464DE04FF0006101EB85208A14E6
:1020A0002849FFF7C9FF00260BE009EB0600254988
:1020B00031F810004FF6FF71884200D003E0701C29
:1020C00086B2A642F1DB00BFA6421BDA4FF00061E8
:1020D00001EB8520FEF79AFE002608E03AF816008C
:1020E00006EB0901174A22F81100701C86B2A642BD
:1020F000F4DB4FF0006101EB85208A14114900F0F8
:1021000023F804E022465146404600F01DF8A7425D
:1021100000D10FE06D1C4FF000090AEB440AA04407
:10212000381B87B2B7F5007F02DD4FF4007400E082
:102130003C46B0E700BFFEF7A9FE00BF9BE70000EA
:1021400000000408B21700202DE9F04105460E46B4
:102150001746002407E036F814102846FEF7AEFEB6
:10216000AD1C601C84B2BC42F5DBBDE8F081000010
:102170004FF6F8710140014A11607047505C004011
:1021800030B501460F4B1A78002014E003060E4CC0
:1021900004EB9353D3F8003C48F68F74234048F285
:1021A00080042343C4B223430406074D05EB945433
:1021B000C4F8003C401C9042E8D341F08003034C3B
:1021C000236030BD38010020005000404C5C0040CE
:1021D00010B54A105300054A126892B202EBC002D1
:1021E000121D034C44F8123010BD0000505C00403A
:1021F0000060004010B502460F48006880B200EB56
:10220000C200801D0D4C04EB40033E290BDD48113C
:1022100001F01F040CB9441EA0B24FF4004444EA7C
:1022200080241C6007E0481001F001040CB1441C3C
:10223000A0B284021C6010BD505C004000600040F1
:1022400030B50E4C04EB8003D3F8003C4BF68F7492
:1022500003EA040201F480530BB182F4805201F4CA
:1022600000530BB182F4005242F4004343F0800368
:10227000024D05EB8004C4F8003C30BD0050004026
:1022800010B50B4B03EB8002D2F8002C4BF68F738A
:1022900002EA030181F4805181F4005141F40042CB
:1022A00042F08002024C04EB8003C3F8002C10BD06
:1022B0000050004010B54A105200044B1B689BB2FE
:1022C00003EBC003024C44F8132010BD505C0040E7
:1022D00000600040044A126892B202EBC002921CF5
:1022E000024B43F812107047505C00400060004001
:1022F00030B50E4C04EB8003D3F8003C48F6BF74B5
:1023000003EA040201F010030BB182F0100201F0A5
:1023100020030BB182F0200242F4004343F080031B
:10232000024D05EB8004C4F8003C30BD0050004075
:1023300010B50B4B03EB8002D2F8002C48F6BF73AC
:1023400002EA030181F0100181F0200141F4004212
:1023500042F08002024C04EB8003C3F8002C10BD55
:102360000050004010B5074B03EB8002D2F8002C60
:1023700048F68F131A400A43024C04EB8003C3F85B
:10238000002C10BD0050004010B500F001F810BD49
:102390000CB50020019000903348006840F4803074
:1023A0003149086000BF3048006800F400300090F8
:1023B0000198401C0190009818B90198B0F5A06FE1
:1023C000F1D12948006800F4003010B101200090DC
:1023D00001E0002000900098012843D123480068C4
:1023E00040F01000214908600846006820F0030012
:1023F00008600846006840F0020008601A4840681B
:10240000194948600846406848600846406840F4FA
:10241000806048600846406820F47C1048600846A8
:10242000406840F4F81048600846006840F080704A
:10243000086000BF0C48006800F000700028F9D068
:102440000948406820F00300074948600846406892
:1024500040F00200486000BF0348406800F00C00F4
:102460000828F9D10CBD00000010024000200240F5
:1024700008B54FF4A06215491548FFF779F94FF4F4
:10248000A06214491448FFF773F901210420FFF7F3
:10249000EDF90820ADF8000003208DF802001020AF
:1024A0008DF8030069460D48FEF714FE4FF48020B6
:1024B000FEF74EFC4FF4802009490860082048715F
:1024C000012088710846FEF757FC08BDE01D00207A
:1024D000C01D0020E0220020D01D00200008014087
:1024E000B000002010B50020FFF748FB0121C8050F
:1024F000FFF79CF910BD000038B501242948006899
:1025000080B2001D284931F8100080B201EB400074
:10251000009026480068007A092832D00098007898
:102520002249096808700098401C009000980078C3
:102530001E49096848700098401C0090009800EB04
:1025400044000090009931F8020B0091FDF771FEF4
:10255000164909684880009800EB440000900099F3
:1025600031F8020B0091FDF764FE1049096888807C
:10257000009800EB44000090009800880B4909681F
:10258000C880012009490968087208480068C088A5
:1025900010B9FEF7D1FF01E0FEF728FAFFF7A4F823
:1025A00038BD0000505C004000600040D4010020B5
:1025B0002DE9F04754480068007800F07F08B8F132
:1025C000000F0AD150480068407A00F0DF004E4901
:1025D000096848720020BDE8F087B8F1020F7CD18D
:1025E00049480068408818B947480068007908B130
:1025F0000220F0E7DFF8149143480068477927F09C
:1026000080052C4640480068407900F0800038B1D1
:102610003F4901EB8400D0F8000C00F0300606E0E2
:102620003B4901EB8400D0F8000C00F4405699F8C7
:102630000000A84204D91EB133480068807A08B966
:102640000220C8E707F0800080B1314901EB840027
:10265000D0F8000C00F0300010284BD1E0B2FDF7AC
:102660004DFFE0B23021FFF743FE43E0284901EB84
:102670008400D0F8000C00F44050B0F5805F39D1F0
:10268000E4B9244A92F82C10E0B2FFF7B3FD204AD7
:1026900002EB8401D1F8001C4BF68F7201EA0200B4
:1026A00080F4805080F4005040F4004141F08001FB
:1026B000174B03EB8402C2F8001C1BE0E0B2FDF7ED
:1026C00003FF134A02EB8401D1F8001C4BF68F7212
:1026D00001EA020080F4805000E011E080F4005034
:1026E00040F4004141F08001094B03EB8402C2F841
:1026F000001C00BF084909684869804700206AE754
:1027000000BF022067E70000D4010020380100204C
:10271000005000403C010020E001002010B50446BC
:102720002CB90120064909680882002010BD05491E
:10273000096808688047024800680A30F6E7000028
:10274000D4010020E001002010B5024606480068D0
:10275000438A32B98888C01A034C2468208200203A
:1027600010BD08681844FBE7D401002010B50446EA
:102770002CB90120064909680882002010BD0549CE
:10278000096888688047024800680C30F6E7000056
:10279000D4010020E001002010B504462CB902202D
:1027A000394909680882002010BD00203749088097
:1027B00035480068007800F07F0018BB324909688E
:1027C000487A00F0200131B13049097841F0020126
:1027D0002E4A117005E02D49097801F0FD012B4AC0
:1027E000117000F0400131B12849097841F0010130
:1027F000264A117005E02549097801F0FE01234AB7
:1028000011703AE020480068007800F07F0001284D
:1028100001D11E48C8E71C480068007800F07F001E
:10282000022828D1184A1268517901F00F0001F0EE
:1028300080027AB1164B03EB8002D2F8002C02F032
:102840003002102A16D1114A127842F001020F4BC1
:102850001A700FE00E4B03EB8002D2F8002C02F44A
:102860004052B2F5805F05D1084A127842F0010269
:10287000064B1A7001E0002096E7064909680869CE
:102880008047024890E70000D4010020CC010020DE
:1028900000500040E001002010B50E480068C078EC
:1028A0000D494978884213DC0A480068807878B975
:1028B00008480068808858B906480068C07805490B
:1028C000096888720549096848688047002010BD7A
:1028D0000220FCE7D401002038010020E0010020A4
:1028E00010B507480068407A40F0200004490968A4
:1028F000487204490968C8698047002010BD00007B
:10290000D4010020E00100202DE9F0412E480068AC
:10291000467926F080073C462B480068407900F055
:10292000800038B1294901EB8400D0F8000C00F098
:10293000300506E0254901EB8400D0F8000C00F4D6
:10294000405523480078A04208D91F4800684088B5
:1029500020B91DB11C480068807A10B90220BDE87A
:10296000F08106F08000A0B1184A02EB8401D1F892
:10297000001C48F6BF7201EA020080F0100040F42B
:10298000004141F08001114B03EB8402C2F8001CAE
:1029900014E00E4A02EB8401D1F8001C4BF68F7252
:1029A00001EA020080F4805040F4004141F08001CF
:1029B000064B03EB8402C2F8001C00BF05490968FE
:1029C000886980470020CAE7D401002000500040F9
:1029D00038010020E001002010B5174B1B68D978A2
:1029E000154B1B685879154B1B689A69904704462C
:1029F00011480068807AE8B13CB90F480068007956
:102A000018B90D480068807808B1022010BD8CB953
:102A10000B490968C868804707480068407906493B
:102A20000968C87204480068C078034909680873D7
:102A30000020EBE70220E9E7D4010020D8010020C4
:102A4000E001002038B50021002200230093394B1B
:102A50001B6898B200BF09E0374C04EB8103D3F840
:102A6000003C9BB2354C44F82130491C0829F3D373
:102A700040F480602F4B186040F00100186020F097
:102A80000100186000BF2B4B1B1D1B6803F4806303
:102A9000002BF8D04FF6FF33264C241D2360002175
:102AA00009E0264B53F821309BB2234D05EB8104FE
:102AB000C4F8003C491C0829F3D340F008001D4B22
:102AC00018601B6898B240F004001A4B18601C4B49
:102AD0001B6800931A4B1A6822F0030242F00102AD
:102AE0001A60184B1B6843F00403164C2360114B0B
:102AF0001B1D1B6803F480532BB923461B6823F06E
:102B00000403236014E04EF6FF730A4C241D236077
:102B1000231F1B6898B220F00800231F1860084C80
:102B2000009B2360074B1B6823F00403054C2360C4
:102B300038BD0000405C004000500040602800208C
:102B40000070004010ED00E010B5134800684FF42D
:102B50007A71B0FBF1F4B4F1807F01D3012010E071
:102B600024F07F40401E4FF0E02148610321081F00
:102B7000FEF7CEFC00204FF0E021886107200861BD
:102B8000002008B100BFFEE70F214FF0FF30FEF735
:102B9000BFFC002010BD000070000020024800684B
:102BA000401C0149086070474800002010B51348D8
:102BB000006840F00100114908600846406810496B
:102BC00008400E494860084600680E4908400B4915
:102BD00008600846006820F48020086008464068C5
:102BE00020F4FE0048604FF41F008860FFF7CCFB24
:102BF0004FF000600449086010BD00000010024062
:102C00000000FFF8FFFFF6FE08ED00E010B501211F
:102C1000880700F04EF818B10121880700F03AF853
:102C200002480068401C0149086010BD54000020A3
:102C30007FB505460C4601210846FEF7F7FDADF8C5
:102C40000850ADF804400020ADF80600ADF80A00C9
:102C500001A94FF0804000F047F80122114690078B
:102C600000F038F84FF4A060FEF748FC1C208DF807
:102C7000000003208DF8010001208DF802008DF87E
:102C800003006846FEF702FC00214FF0804000F090
:102C900004F87FBDCA430282704721B1028842F026
:102CA0000102028004E002884FF6FE731A4002809F
:102CB000704730B50246002000230024158A05EA3B
:102CC0000103958905EA010413B10CB1012000E06C
:102CD000002030BD1AB183890B43838102E08389D0
:102CE0008B43838170470000002202881D4B98426D
:102CF0000ED01D4B98420BD0B0F1804F08D01B4B2B
:102D0000984205D01A4B984202D01A4B984204D1EF
:102D10004FF68F731A404B881A43174B984207D0CF
:102D2000164B984204D04FF6FF431A40CB881A4303
:102D300002808B8883850B8803850A4B98420BD0D1
:102D4000094B984208D00E4B984205D00D4B984243
:102D500002D00D4B984201D10B7A03860123838266
:102D600070470000002C0140003401400004004086
:102D700000080040000C004000100040001400401B
:102D800000400140004401400048014010B540F2BD
:102D900025512D4800F0BEF8002853D02A4800F0F5
:102DA00075F9C4B22948008800F4004058BB274890
:102DB000008800F4804060B10A2C03D00020234931
:102DC000088020E02148008840F400401F49088026
:102DD00019E00D2C06D11D48008840F480401B49A5
:102DE000088010E019480088C0F30D0018490C5401
:102DF00016480088401C1549088008460088C728E6
:102E000001DD002008801148008800F40040C8B1AE
:102E10000E48007800F03F000E490870FEF7F4FA03
:102E200000200A49088000BF0B48006800F4E060F9
:102E30000A490843001D08490860BFF34F8F00BFCF
:102E400000BFFEE710BD00000038014098000020E0
:102E5000B21B00209A0000200CED00E00000FA05F3
:102E600021B1828942F40052828104E082894DF6C8
:102E7000FF731A408281704710B50446204884428F
:102E800009D101218803FEF701FD00214FF48040A4
:102E9000FEF7FCFC32E01B48844209D101214804C2
:102EA000FEF7D4FC00214FF40030FEF7CFFC25E004
:102EB0001548844209D101218804FEF7C7FC00218E
:102EC0004FF48020FEF7C2FC18E01048844209D17C
:102ED0000121C804FEF7BAFC00214FF40020FEF7E0
:102EE000B5FC0BE00A48844208D101210805FEF731
:102EF000ADFC00214FF48010FEF7A8FC10BD0000CF
:102F0000003801400044004000480040004C0040B0
:102F10000050004070B50246002400230025002028
:102F200040F66A16B14200D100BFC1F3421501F06C
:102F30001F03012606FA03F3012D02D196893340BF
:102F400006E0022D02D1168A334001E0968A334012
:102F50000C12012606FA04F41688344013B10CB1A1
:102F6000012000E0002070BDF0B5034600240026DB
:102F70000025002040F66A17B94200D100BF18466C
:102F8000C1F3421401F01F06012707FA06F5012CD0
:102F900001D10C3004E0022C01D1103000E01430DB
:102FA0001AB107682F43076002E00768AF43076064
:102FB000F0BD00002DE9F04786B005460E4600241E
:102FC000A24600BFA1460027B08900B100BF2F462E
:102FD0002C8A4CF6FF700440F08804432C82AC89A4
:102FE0004EF6F3100440B0883189084371890843D4
:102FF0000443AC81AC8A4FF6FF400440B0890443DF
:10300000AC8201A8FEF7BEFC1F48874202D1DDF862
:1030100010A001E0DDF80CA0A88900F4004040B148
:103020000AEBCA0000EB0A1031684900B0FBF1F866
:1030300007E00AEBCA0000EB0A1031688900B0FB18
:10304000F1F86420B8FBF0F004012009642101FBD1
:103050001089A88900F4004040B1322000EBC9007B
:10306000B0FBF1F000F00700044308E0322000EB71
:1030700009106421B0FBF1F000F00F0004432C8133
:1030800006B0BDE8F087000000380140014688889E
:10309000C0F30800704710B54FF48020FDF758FECC
:1030A00010BD000010B5044624B908210448FEF7FD
:1030B000EEF803E008210248FEF7EBF810BD00002F
:1030C0000008014010B5FFF7D3F9FFF70BFA00F045
:1030D00021F800F001F810BD10B508480849086053
:1030E000022009680872074807490860074808492C
:1030F0000860054909680868804710BD80280020DD
:10310000D40100203C010020D80100206C010020E7
:10311000E001002008B54FF4A060FEF7EFF914209D
:103120008DF8000003208DF801008DF802000120C9
:103130008DF803006846FEF7A9F92A208DF80000F3
:1031400003208DF8010002208DF802006846FEF78A
:103150009DF908BD10B588B0002469480068694928
:1031600008800846008800F4007067490988084014
:1031700050B14FF6FF506249086064480078401C27
:1031800062490870FEF796FD5E48008800F4004032
:103190005D490988084008B1FDF752F85948008890
:1031A00000F4806058490988084030B14FF6FF307C
:1031B000534908605649486880475248008800F4DF
:1031C000005051490988084018B14DF6FF704C492C
:1031D00008604C48008800F480504B49098808403A
:1031E00030B14EF6FF70464908600020FEF7E8FC5B
:1031F0004448008800F4006043490988084060B1F1
:103200004448007810B1FFF71DFC02E00220FEF7F1
:10321000D7FC4FF2FF703A4908603A48008800F442
:103220008070394909880840002866D04FF6FF6051
:1032300033490860081D006800F40040002856D09B
:1032400035480068401C3449086008460068032877
:1032500050D92B48001F006800F00800002849D111
:103260002748001F006880B22C490860002408E04D
:103270002B4901EB8400D0F8000C80B24DF82400FB
:10328000641C082CF4D32548006840F00100234951
:1032900008600846006880B21949091F08601F4885
:1032A000006820F001001D4908600846006880B2EF
:1032B0001349091F086000BF1148006800F48060CE
:1032C0000028F9D04FF6FF300D490860002408E0CF
:1032D0005DF8240080B2124A02EB8401C1F8000CB0
:1032E000641C082CF4D300200B49086002E0002085
:1032F000094908600720FEF763FC08B010BD000014
:10330000445C0040E8000020DE010020EA000020CC
:103310003C010020C4010020EC000020F00000204F
:103320000050004010B5FFF715FF10BD0020064902
:1033300008604FF43F40054908800846008802496C
:10334000091F086000207047445C0040DE01002037
:103350002DE9F04104460E46002504F07F00FDF7FC
:10336000AFFF054604F07F00FDF79AFF07462A46A7
:1033700039463046FEF7A4F92846BDE8F081000042
:1033800070B504460D462A4621460248FEF715FA56
:1033900070BD0000D01D002070B504460D462A46C1
:1033A00021460248FEF7EBF970BD0000D01D002059
:1033B000F0B5144604F1010C4FEA6C07DFF824C0A5
:1033C0000CEB41033D460AE00678401C90F800C033
:1033D00046EA0C2223F8022B9B1C401C6D1E002D7C
:1033E000F2D1F0BD0060004070B504460025212CEC
:1033F00008D112480068007800F07F0021280ED123
:103400000F4D0CE0202C0AD10C480068007800F029
:103410007F00212800D10B4D20200B4908700DB9E9
:10342000022070BD054800688561002103480068DE
:1034300041820020A8470020F3E70000D4010020CB
:1034400075340008053600082C01002010B504462C
:1034500002492046FFF778F910BD000098010020CE
:1034600010B5044602492046FFF76EF910BD000072
:1034700090010020014629B90820034A12681082F1
:10348000002070470148FCE7D401002030010020F3
:1034900070B5054606480068C478042C01DD00209C
:1034A00070BD044800EBC4012846FFF74DF9F7E76B
:1034B000D4010020A00100200246002901DD0220E5
:1034C0007047012A01DD0220FAE70020F8E700003A
:1034D000014608480068007800F07F00212807D1E5
:1034E000022901D100207047222901D10020FAE7EA
:1034F0000220F8E7D401002010B500203449096803
:1035000088723448C07932490968487200203049CD
:103510000968C872FEF72CFE4FF400710020FEF718
:1035200021FF10210020FEF7E3FE40210020FEF7DE
:103530004FFE80210020FEF7BDFE0020FCF7F8FFC3
:10354000254890F82C100020FEF754FE0020FEF7CE
:1035500097FE00210120FEF705FFC0210120FEF7A4
:10356000A9FE20210120FEF7C3FE00210120FEF765
:1035700067FE4FF4C0610220FEF7F4FE4FF4807145
:103580000220FEF797FE00210220FEF759FE2021BF
:103590000220FEF7ADFE00210320FEF7E3FE4FF40C
:1035A00088710320FEF714FE40210320FEF722FE5F
:1035B0004FF440510320FEF743FE00210320FEF7A5
:1035C00097FE0020FEF7DCFD01200449086010BDD5
:1035D000D4010020384B00083C010020C00100202D
:1035E0000348817A11B10521024A11607047000039
:1035F00080280020C0010020042001490860704795
:10360000C0010020014629B90820034A126810822F
:10361000002070470148FCE7D40100203001002061
:1036200003480078202802D1002001490870704723
:103630002C0100207047000010B5FDF763FE00204C
:10364000054909688872FEF773F8FFF76FFE0020DE
:103650000249086010BD0000D4010020C001002014
:103660000FB4084B10B504A902AA039800F0EAF8B9
:10367000044602A9002000F086FA204610BC5DF83E
:1036800014FB0000873B000802E008C8121F08C1B5
:10369000002AFAD170477047002001E001C1121FD3
:1036A000002AFBD1704738B504466D2000906B4668
:1036B000012240F606012E2000F077FE3CB140F2D8
:1036C000076241F606012E2000F044FE06E041F2BA
:1036D000076241F606012E2000F03CFE38BD38B5E9
:1036E00004466B4602220021362000F09DFC0E2C81
:1036F00057D2DFE804F011071A56565656233256B1
:10370000563F464D00208DF800009DF8010000F066
:10371000FE008DF8010045E09DF8000000F0FC007F
:1037200040F001008DF800003CE09DF8000000F042
:10373000FC0040F002008DF8000033E09DF800002E
:1037400000F0B30040F048008DF800009DF8010043
:1037500040F080008DF8010024E09DF8000000F0AA
:10376000B3008DF800009DF8010000F07F008DF897
:10377000010017E09DF8010040F002008DF8010003
:1037800010E09DF8010000F0FD008DF8010009E057
:103790009DF8000000F0CF0040F020008DF8000000
:1037A00000E000BF00BF6B4601220021362000F080
:1037B000FCFD0DF1010301221146362000F0F5FD5C
:1037C00038BD08B503208DF8010001208DF80000F8
:1037D0006B4602220021362000F0E7FD4FF4004244
:1037E00006212D2000F0B6FD012000F0D1F90120C6
:1037F000FFF775FF08BD38B50446200A8DF80100B3
:10380000E0B28DF800006B46022204212D2000F06A
:10381000CCFD03208DF800006B46012206212D20EF
:1038200000F0C3FD00208DF800006B460122062148
:103830002D2000F0BAFD0A212D2000F0D3FB054613
:10384000284638BD2DE9FF4F8BB088460546002637
:1038500006E025280BD0DDE90D1290476D1C761C83
:1038600028780028F5D10FB03046BDE8F08F00244D
:10387000A146A2460122AE4900E0044315F8013FEB
:10388000203B02FA03F00842F7D128782A2810D00A
:103890006FF02F022878A0F13001092915D809EB23
:1038A000890102EB410144F0020400EB01096D1CA7
:1038B000F0E758F8041B5FEA010903D544F400540B
:1038C000C9F1000944F002046D1C28782E2817D194
:1038D00015F8010F44F004042A280ED06FF02F02CF
:1038E0002878A0F1300109290AD80AEB8A0102EBF5
:1038F000410100EB010A6D1CF2E758F804AB6D1CA6
:1039000028786C280FD006DC4C2817D068280DD0FA
:103910006A2814D104E0742810D07A280FD10DE061
:1039200044F400140AE044F4801401E044F4401428
:103930006978814202D104F580146D1C6D1C2878D1
:10394000692865D006DC00288DD0632827D064283C
:1039500006D15DE06E2808D073282AD0752877D06C
:10396000DDE90D129047761CE0E0C4F30250022816
:1039700009D003280DD0D8F8001004280DD00E600F
:1039800008F10408D2E0D8F80010F217C1E900628B
:10399000F6E7D8F800100E80F2E70E70F0E718F89E
:1039A000041B8DF8001000208DF80100EB4601206B
:1039B00003E058F804BB4FF0FF3061074FF00007F9
:1039C00001D40AE07F1C57450DDA8742FADB1BF869
:1039D00007100029F6D106E07F1C8742FCDB1BF8AC
:1039E00007100029F8D1DDE90D23A9EB0700814676
:1039F000214600F0B1F83044C61904E0DDE90D12AB
:103A00001BF8010B90477F1EF8D22146484688E0FC
:103A100058F8040BC4F302514FF00A0B032900D1EC
:103A200000B2042900D140B2002802DA40422D2120
:103A300002E0210505D52B218DF82410012104E099
:103A400006E0E10710D02021F6E708AF089113E067
:103A500058F8040BC4F302514FF00A0B032900D1AC
:103A600080B2042900D1C0B20021EEE75946FCF72C
:103A70008DFB303107F8011D0028F7D1ADEB0700B1
:103A800000F1200B600702D524F4803401E04FF0F0
:103A9000010ADA4502DDAAEB0B0000E000208246B5
:103AA00000EB0B0108980144A9EB01000A90E00328
:103AB00006D4DDE90D2321460A9800F04DF80644AE
:103AC0004FF0000908E009A911F80900DDE90D121D
:103AD000904709F10109761C08998945F3DBE00359
:103AE0000CD5DDE90D2321460A9800F035F806448F
:103AF00004E0DDE90D1230209047761CBAF1000198
:103B0000AAF1010AF5DC05E0DDE90D1217F8010B59
:103B10009047761CBBF10001ABF1010BF4DC0A9875
:103B20002146DDE90D2300F005F806446D1C97E6FB
:103B3000092801002DE9F041044600251E461746DC
:103B4000880404D405E039462020B0476D1C641E6B
:103B5000F9D52846BDE8F0812DE9F041044600255D
:103B60001E469046C80301D5302700E02027880470
:103B700004D505E041463846B0476D1C641EF9D5B2
:103B80002846BDE8F0810A68531C0B60107070472E
:103B900070B5044600F01CFE051900BF00F018FEC9
:103BA000401B0028FADD70BD014651B117200122EB
:103BB000824043099B0003F1E023C3F8002100BFCA
:103BC00000BF704710B51720FDF7C8F8044644B190
:103BD000172001218140044A430942F8231000BF05
:103BE00000BF204610BD000080E100E010B50221BA
:103BF0000F2000F0E1F9C0F3001010BD2DE9F84FDF
:103C000004464FF00009CA4625786079824931F8A8
:103C100010806078401E8149C6B20863042D01D02F
:103C2000072D01D1012000E00020834620787B4948
:103C30000873E07938B90846806940F480008861EB
:103C40004FEAE80805E07548806920F48000734970
:103C50008861207A7149487308468069217A4FF457
:103C6000403202EA014108436C498861084600215C
:103C70008269042000F081FB424642F604012E20B6
:103C800000F068FB3046FFF70EFD6548405D00EB35
:103C9000800064494318052207212B2000F085FB92
:103CA000614800EB0B0301220B21282000F07DFB73
:103CB0005B48405D5D4951F820200C21282000F030
:103CC0005CFBE0795A4901EB8000A17930F81120C2
:103CD0000221272000F03EFB564830F81620042130
:103CE000272000F037FBE07928B96422062127203D
:103CF00000F030FB1EE0A07804280DD110200090C9
:103D000010220621272000F025FB6B4601222621E8
:103D1000272000F04AFB0DE02820009020220621F9
:103D2000272000F017FB6B4601222621272000F0F8
:103D30003CFB00BF404800EB0610E17850F8212022
:103D40000821272000F019FBB4F8090018B941F246
:103D50004100A4F80900B4F809202021272000F030
:103D6000F9FA36480C210268232000F006FB33489C
:103D7000001D30F816200421232000F0EBFAA07972
:103D800058B1E0792E49431801220021212000F08A
:103D90000CFB4FF003094FF0010A05F00F00F02172
:103DA00001EA0511084361784FF4402202EA81419B
:103DB0000843910001EA095108434FF4003101EA38
:103DC0004A41084321794FF0F86202EA81510843E1
:103DD0006179520102EAC16140EA01073A460021D5
:103DE0001F2000F0CAFAA0786178084300040B494C
:103DF000086108460069E1794FF4004242EA413126
:103E0000084306490861084600210269082000F0BD
:103E1000B4FA0020BDE8F88FF44A0008780F0020BB
:103E2000784A0008984A0008B64A0008804A000804
:103E3000C44A0008D04A0008D44A0008B84A00081A
:103E4000C04A000838B54020009000210E2000F044
:103E5000C9F80546FFF7B6FE0446002211460E20BB
:103E600000F08BFA6B46012200210D2000F09DFA34
:103E7000094A00210F2000F080FA00F04FFA2A468C
:103E800000210E2000F079FA2046FFF78DFE002079
:103E9000024981F82C0038BDF8FF2724780F002054
:103EA0002DE9FC4104460420019000250027002054
:103EB0003F494875086300213D4880F825100020DF
:103EC0003B4981F82C0088834863886300F0A6F89A
:103ED00037490860084600683649884202D088178A
:103EE000BDE8FC810020FFF7FAFB4FF01F320021F4
:103EF0001E2000F042FA01AB01220021242000F034
:103F000054FA1E20FFF777FC85B2280A28498873E7
:103F10000420FFF770FC0746F8B270B10220009051
:103F20006B46012212212D2000F03FFA2048808BA1
:103F300040F480501E49888300BF0620FFF75BFCD9
:103F40001B4948600720FFF756FC1949886005F0B7
:103F50001F0008750846007D08B91020087514492F
:103F6000087D00F056FA04F0010040B1FFF729FC8B
:103F70000F48808B40F400600D4988830DE00521D7
:103F8000362000F019F806464FF6FF50064032463C
:103F90000521362000F0DEF900BF0120FFF79FFB6E
:103FA0000021042000F01EF801498861002097E7F5
:103FB000780F00203001CADEF8B504460D464FF6F2
:103FC000FF76A9B2A0B26B46022200F02DF8074698
:103FD00037B99DF800009DF8011000EB012086B272
:103FE0003046F8BD2DE9F84305460E464FF0FF3741
:103FF000B1B2A8B26B46042200F016F88046B8F1C0
:10400000000F08D1032404E01DF8040000EB07278B
:10401000641E002CF8DA3846BDE8F88310B500219C
:104020000846FFF7DFFF10BD2DE9F84306460C46B2
:104030001746984600252CB9F2B228466D1C0DF89B
:1040400000201BE0F0B240F0400228466D1C0DF845
:1040500000207F2C05DCE2B228466D1C0DF8002004
:104060000CE0E0B240F0800228466D1C0DF8002004
:10407000C4F3C71228466D1C0DF80020A8B24346B1
:104080003A46694600F0F6FBBDE8F883F8B5064607
:104090000F46144600252CB9112228466D1C0DF838
:1040A000002019E0512228466D1C0DF800207F2CBD
:1040B00005DCE2B228466D1C0DF800200CE0E0B2F1
:1040C00040F0800228466D1C0DF80020C4F3C71292
:1040D00028466D1C0DF80020A8B233463A466946C2
:1040E00000F07CFBF8BD38B504460020009000F0DD
:1040F00015F94FF480750CB145F400752A4600217E
:104100000D2000F027F9B4B16B46012203210F20E6
:10411000FFF78AFF9DF8000000F0080058B1FFF794
:1041200091FE4FF480752A4600210D2000F012F90F
:104130004FF0FF3038BD0020FCE708B5E0200090CC
:104140006B4601220321362000F02FF9F020009069
:104150006B4601220321362000F027F908BD00003C
:1041600038B504460020009034B10C48806940F016
:1041700000500A49886105E00848806920F0005035
:104180000649886105488069000E00906B4601224F
:104190000321042000F009F938BD0000780F002049
:1041A00010B5044644B10C48806920F480500A4997
:1041B00088610120487507E00748806940F4805015
:1041C0000549886100204875034800218269042060
:1041D00000F0D3F810BD0000780F002038B5044679
:1041E00004F00100B8B36B46022200212620FFF73D
:1041F0001BFF9DF8010020F03C008DF801009DF8A8
:10420000010040F014008DF801000DF101030122BE
:104210001146262000F0C9F86B4601220221362003
:10422000FFF702FF9DF8000040F084008DF80000C9
:104230006B4601220221362000F0B7F810208DF8DD
:10424000000001208DF801006B4602222821362053
:1042500000F0ABF815E0FFE704F0010088B96B4609
:10426000022200212620FFF7DFFE9DF8010020F04A
:1042700014008DF801006B4602220021262000F078
:1042800094F804F0020088B10F208DF800006B460E
:1042900001222A21362000F088F800208DF8000045
:1042A0006B4601222A21362000F07FF838BD00003D
:1042B00038B504466B46012203210420FFF7B4FE03
:1042C000002C16DD224600210C2000F043F89DF85A
:1042D000000040F0100000900F48806940F08050CE
:1042E0000D4988616B4601220321042000F05DF82E
:1042F00010E09DF8000020F0100000900648806952
:1043000020F08050044988616B460122032104207B
:1043100000F04BF838BD0000780F00201CB501AB51
:10432000012203210F20FFF77FFE9DF8040000F01B
:1043300080009DF8041001F04001B0EB410F08D05F
:10434000012000906B46012203210D2000F02DF882
:1043500000BF1CBDF8B505460E461446E0B28DF808
:10436000000020128DF80100B1B2A8B26B46022203
:1043700000F01BF807463846F8BD2DE9F84306461D
:104380000F461446002504E0E0B20DF80500240AAB
:104390006D1C042DF8DBB9B2B0B26B46042200F0FC
:1043A00004F880464046BDE8F8832DE9F843064608
:1043B0000C461746984600253CB9F0B240F0800202
:1043C00028466D1C0DF800201BE0F0B240F0C00242
:1043D00028466D1C0DF800207F2C05DCE2B2284633
:1043E0006D1C0DF800200CE0E0B240F08002284681
:1043F0006D1C0DF80020C4F3C71228466D1C0DF883
:104400000020A8B243463A46694600F0F7FABDE8F4
:10441000F88338B504466B4601220E212B20FFF7A6
:1044200003FE9DF8000020F01F00009004F01F0024
:104430009DF80010084300906B4601220E212B20AE
:10444000FFF7B3FF38BD704710B540210148FCF7B6
:104450001EFF10BD000C014010B540210148FCF7C3
:1044600018FF10BD000C014000F092F941F61F4109
:1044700042F20F70FEF7DCFB4FF4E13000F06AFA15
:10448000FCF7E0FDFDF71AFD6420FFF781FBFCF768
:1044900061FD6420FFF77CFBFEF714FE6420FFF74C
:1044A00077FB40F2FF319848FDF7A8FC40F2FF315E
:1044B0009648FDF731FC012202219548FDF75CFD8D
:1044C000012211469248FDF757FD92499248FFF7A5
:1044D000C7F8924908609049904A12688818904934
:1044E000FFF7BEF88D49096808448C4908608A497D
:1044F0008A4A126888188B49FFF7B2F88749096819
:104500000844864908608449844A126888188449A6
:10451000FFF7A6F8814909680844804908607E4988
:104520007E4A126888188049FFF79AF87B49096823
:1045300008447A490860084601687748FEF72CFF6E
:104540000DE011217948FEF727FFFFF785FF642072
:10455000FFF71EFBFFF778FF6420FFF719FB744895
:1045600000780028EDD014217248FEF715FF0321D2
:104570007148FEF711FF082170A0FEF70DFF71A032
:10458000FFF761FF00F0B6F900F0DFF90020FFF758
:1045900087FC401C20B96FA0FFF755FF00BFFEE766
:1045A00000F0CEF96E48007818B96E48FFF726FB88
:1045B00002E06D48FFF722FB0120FFF70FFE01200C
:1045C000FFF7EEFD0120FFF7CBFD0020FFF770FEA7
:1045D0000020FFF788FD01218807FEF75EFB91E0D0
:1045E00000BF00210F20FFF7FDFC60490860604913
:1045F00008400028F5D05D48008800F4804000287D
:1046000055D05A48006800F48010002848D140F284
:10461000FF3258493D48FBF7A7FD00211020FFF766
:10462000E1FCC0F309005449088008460088B0F551
:10463000806F1FDA0022084601883448FFF726FD04
:1046400000BF4E4800680128FBD03048807802281F
:1046500010D14B480068401C49490860494800682F
:1046600040B104214648FEF797FE00204449086007
:104670004449086000F098F8FFF7B8FA30B9424BA7
:10468000012203210D20FFF790FE09E0FFF7DAFB7E
:10469000FFF753FD4FF4807200210D20FFF75AFE03
:1046A0004FF4804200210F20FFF767FE2AE02F48D9
:1046B000006800F4801080B1FFF7C4FBFFF73DFDF8
:1046C000314B012203210D20FFF76FFE4FF4807262
:1046D00000210D20FFF73EFE14E02C4A00210F20A0
:1046E000FFF74BFEFFF7AEFBFFF727FD264B01223E
:1046F00003210D20FFF759FE4FF4807200210D2099
:10470000FFF728FE6CE70000E8010020E705002025
:1047100000300140984C0008E50D002040000020CA
:10472000C04B0008084C0008504C0008280000202E
:104730009B000020421D00203900002053544152AC
:10474000540D0A0053494D504C45205458207631A1
:104750002E320000494E4954204641494C45440000
:104760009C000020000000200B000020180000200A
:1047700000D03724E60900201C000020840000201F
:104780002000002054000020440000200090272436
:1047900010B5FEF70BFAFDF789F8FEF7D5F9FCF72F
:1047A00041FE002010BD000010B54FF40071074815
:1047B000FCF764FD08B9012000E000200446224611
:1047C0004FF400710148FCF766FD10BD0008014080
:1047D0000148006870470000480000202DE9F047BC
:1047E00006460F4690461C460025FFF7EBF981462A
:1047F00000201A4908601A49086010201949086009
:1048000000BF0DE0785D1849888100BF1648008917
:1048100000F001000028F9D01348808920706D1C39
:10482000B542EFDB012208211048FBF7F7FF012218
:1048300002210E48FBF7F2FF0120094908604146BA
:104840002046FDF7AFFA41460948FDF7C1FA484650
:10485000FFF7AAF90020BDE8F08700008C000020D7
:104860008400002014080140003001401C00024078
:10487000B40F00202DE9F04706460F4690461D462E
:104880000024FFF79FF9814610201849086000BFF7
:104890000DE0385D1649888100BF1548008900F099
:1048A00001000028F9D0124880892870641CB442A5
:1048B000EFDB00240DE000200D49888100BF0C488B
:1048C000008900F001000028F9D0094880892855A6
:1048D000641C4445EFD310200449091F0860484672
:1048E000FFF762F90020BDE8F087000014080140DE
:1048F0000030014008B50120ADF8000010208DF80F
:10490000030003208DF8020069460C48FCF7E2FB27
:1049100001210A48FCF7BBFC0120ADF80000002093
:104920008DF8030003208DF8020069460348FCF768
:10493000D1FB0220FFF72CF908BD00000008014060
:1049400000B50820FDF7A0FA00BD00B52020FDF756
:104950009BFA00BD10B586B00446012144F2040064
:10496000FCF784FF2348FEF787FA4FF40070ADF898
:10497000140003208DF8160018208DF8170005A9E3
:104980001D48FCF7A7FB4FF48060ADF8140004202D
:104990008DF8170005A91848FCF79CFB25208DF819
:1049A000000001208DF8010003208DF80200012095
:1049B0008DF803006846FCF769FD01940020ADF80E
:1049C0000800ADF80A00ADF80C00ADF810000C209E
:1049D000ADF80E0001A90748FEF7ECFA012240F2FB
:1049E00025510448FEF7C0FA01210248FEF738FAC3
:1049F00006B010BD00380140000801402DE9F04725
:104A000005460E46174698460024FFF7DBF8814618
:104A100010201749086000BF0CE0305D15498881FF
:104A200000BF1448008900F001000028F9D01148A7
:104A30008089641CAC42F0DB00240DE018F804000F
:104A40000C49888100BF0B48008900F00100002854
:104A5000F9D008488089641CBC42EFD31020044977
:104A6000091F08604846FFF79FF80020BDE8F0875F
:104A70001408014000300140000001020304000559
:104A8000405C0000A05C0400C06C0800805C040076
:104A9000E03F1E00E07D1E00070400091E080540DF
:104AA0000826091040085608054008261D0400087D
:104AB000BE1D040008BED8BC07A9022570889B88CB
:104AC000401008000A001600010006000100020064
:104AD00087008D002D001A3152001A339A001A35C2
:104AE0001D011A376B003B31BE003B335E013B3585
:104AF00096023B37000099599959EB518F421E4558
:104B0000142E0080EB51F5283333E13A703DE13A41
:104B1000C235852BC2353333C235C235AE47E13A93
:104B20005138A330513812010002020000408304C2
:104B3000405700020102030109024300020100C0C4
:104B400032090400000102020100052400100105E1
:104B50002401000104240202052406000107058245
:104B6000030800FF09040100020A00000007050312
:104B700002400000070581024000FF0403090418F9
:104B800003480069006B0065007200200073007527
:104B900000640069006F002603560069007200740B
:104BA00000750061006C00200043004F004D0020A4
:104BB0000050006F00720074002000200000000010
:104BC0007C20202020202020202020202020202089
:104BD00020202020202020202020202020202020D5
:104BE00020202020202020202020202020202020C5
:104BF00020202020202020202020202020202020B5
:104C000020200D0A000000007C20202020202020F1
:104C10002020202020202020202020202055574206
:104C2000C9E8B1B820202020202D202020B2D5C4F2
:104C3000DAB2D5BCE4CDA8D0C52020202020202089
:104C4000202020202020202020200D0A000000000D
:104C50007C2A2A2A2A2A2A2A2A2A2A2A2A2A2A2A62
:104C60002A2A2A2A2A2A2A2A2A2A2A2A2A2A55574C
:104C700042C4A3BFE9B2E2CAD42A2A2A2A2A2A2A8B
:104C80002A2A2A2A2A2A2A2A2A2A2A2A2A2A2A2A84
:104C90002A2A0D0A000000007C2A2A2A2A2A2A2A07
:104CA0002A2A2A2A2A2A2A2A2A2A2A2AB9FEB6FBA4
:104CB000B1F5B9A4D2B5B4F3D1A7B5BCBABDD2C7CA
:104CC000C6F7D1D0BEBFCBF92A2A2A2A2A2A2A2AF5
:104CD0002A2A2A2A2A2A2A2A2A2A0D0A0000000019
:104CE000004D000800000020E8010000DC01000881
:104CF000D04D0008E8010020B836000098360008C2
:104D000014020104170303010203411A050B3B04BB
:104D1000040B01121011C7EBC5E4D6C3C9E8B1B842
:104D2000B2CECAFD0D0A190381021B01194F295386
:104D3000100A040607080902040608ACA24A041C6B
:104D4000291801341426035612691272127412754E
:104D50001261126C12201243124F1A4D0812503A6F
:104D60006F181A2002011613850C0C1C082114045C
:104D70000A11D524512AC2EE12081A040713393633
:104D80001C08F9341C19081A350413E9331B08D11F
:104D9000101AB9041A61041A4D041A9104413240E0
:104DA00029440B18E135741AF91C13264B330812E9
:104DB0001A380832431A7B0832041A7F0832181A4C
:104DC0009708322622B82A200841299201200000A3
:0400000508000131BD
:00000001FF
